:020000040800F2
:1070000000150020457100084D7100084F710008FF
:10701000517100085371000855710008000000000C
:107020000000000000000000000000005771000890
:1070300059710008000000005B710008699B00089E
:107040005F7100085F7100085F7100085F710008E0
:107050005F7100085F7100085F7100085F710008D0
:107060005F7100085F7100085F7100085F710008C0
:107070005F7100085F7100085F7100085F710008B0
:107080005F7100085F7100085F7100085F710008A0
:107090005F7100085F7100085F7100085F71000890
:1070A0005F7100085F7100085F7100085F71000880
:1070B0005F7100085F7100085F7100085F71000870
:1070C0005F7100085F7100085F7100085F71000860
:1070D0005F710008D59D00085F710008299E0008B7
:1070E0005F7100085F7100085F7100085F71000840
:1070F0005F7100085F7100085F7100085F71000830
:107100005F7100085F710008259D00085F7100082D
:107110005F7100085F7100085F7100085F7100080F
:107120005F7100085F7100085F7100085F710008FF
:10713000DFF80CD000F0F8FB00480047F5B300087A
:10714000001500200648804706480047FEE7FEE796
:10715000FEE7FEE7FEE7FEE7FEE7FEE7FEE7FEE707
:10716000819B00083171000840EA01039B0703D0AE
:1071700009E008C9121F08C0042AFAD203E011F876
:10718000013B00F8013B521EF9D27047D2B201E038
:1071900000F8012B491EFBD270470022F6E710B51C
:1071A00013460A4604461946FFF7F0FF204610BD75
:1071B000421E12F8013F002BFBD111F8013B02F8EF
:1071C000013B002BF9D1704730B505462A460B46E6
:1071D00012F8010B13F8014B08B1A042F8D01CB112
:1071E000002802D06D1CF1E7284630BD10B50446DA
:1071F00004E00B7800F8013B03B1491C521EF8D2A1
:10720000204610BD421C10F8011B0029FBD1801A3A
:10721000704710B5002200E0521C835C8C5CA342D6
:1072200001D1002BF8D1D8B2E1B2401A10BD03460B
:1072300011F8012B00F8012B002AF9D118467047EC
:107240000FB400B58DB010A909900B9000914FF0CC
:10725000FF300A9000200C900548069005480790E2
:107260006A4609A80F9900F079F90DB05DF814FB92
:1072700079750008977500082DE9FF5F1D464FF0EE
:10728000FF3BD5E9014691465F464FF00008A969EA
:107290007F1C01988847296A824688470028F6D1D2
:1072A000BAF1FF3F0CD024F4C064002E19DD600653
:1072B00014D5BAF12B0F09D0BAF12D0F0ED103E07E
:1072C000584604B0BDE8F09F44F48064A9697F1C6F
:1072D00001988847761E8246002E02DDBAF1300FF3
:1072E00003D0B9F1000F26D032E0A969761E44F42C
:1072F00000747F1C019888478246002E05DDBAF194
:10730000780F06D0BAF1580F03D0B9F1000F10D0A2
:107310001EE0B9F1000F02D0B9F1100F18D1A96920
:10732000761E24F400747F1C019888478246102042
:1073300002E0082000E00A20814609E008FB090875
:10734000A969761E44F400747F1C01988847824620
:10735000002E05DD4946504600F0EBF80028EDDA36
:10736000E96901988847A00502D46FF00100A8E7F9
:10737000E00725D1600613D5600502D5C8F10000ED
:1073800000E0404629680A1D2A600968220501D5E7
:10739000087015E0220701D5088011E008600FE0B1
:1073A0002868011D29600068210502D580F8008049
:1073B00006E0210702D5A0F8008001E0C0F80080B7
:1073C00038467EE72DE9FF5FD2E901A74FF00008BC
:1073D000916999461446DDF838B0464601988847C9
:1073E000054659EA0B0005D009E0A169761C019811
:1073F00088470546216A284688470028F5D1681C39
:1074000003D05FEACA7005D015E04FF0FF3004B03A
:10741000BDE8F09F2068011D2160D0F800800AE0DF
:107420005FEACA7001D108F8015BA169761C7F1E72
:10743000019888470546002F1ADD681C18D0B9F15D
:10744000000F0DD0E81705EBD060421120F01F00AF
:1074500059F822102A1A012090400142E0D107E099
:10746000BBF1000FDCD1216A284688470028D7D01D
:10747000E16901988847BBF1000F07D1002E05DDB7
:107480005FEACA7002D1002188F80010A068B842F3
:1074900003DDBBF1000F03D017B16FF00100B6E7B9
:1074A0003046B4E730B50B460146002020220124C7
:1074B00009E021FA02F59D4205D303FA02F5491BC2
:1074C00004FA02F52844151EA2F10102F1DC30BDD8
:1074D0002DE9F05F0546002092469B468846064609
:1074E000814640241BE0284641464746224600F09C
:1074F0003CFA53465A46C01A914110D311461846D9
:10750000224600F023FA2D1A67EB01084F46224667
:107510000120002100F01AFA17EB00094E41201E4D
:10752000A4F10104DFDC484631462A464346BDE863
:10753000F09F3A2800D2303820F02002412A01D3AF
:10754000A2F13700884201D34FF0FF3070470000AE
:10755000026811441378016018467047D1600449ED
:1075600051610449116200211161114600F024BAF1
:1075700051750008AF790008426842B1016811F8FE
:10758000013B23B1521EC0E9001218467047012189
:10759000C160881E704742685AB1C368016843B928
:1075A00083688B4205D0491E521CC0E9001200209E
:1075B00070474FF0FF3070472DE9FE4F804681EA5B
:1075C0000300C00F0C46009021F0004123F000455D
:1075D000B8EB0200A94105D24046214690461C4620
:1075E0000B46024623F00040104347D0270DC7F357
:1075F0000A00C3F30A510290401A019040286BDA46
:10760000C3F3130040F4801B0098924620B100237E
:10761000D2EB030A63EB0B0B01985946C0F1400211
:10762000504600F093F906460D4650465946019AD9
:1076300000F0ABF910EB08006141002487EA115219
:1076400084EAE7731A4340D0009A62B3019A012A90
:107650004FEA075215DC001B61EB02014FF00042BC
:1076600002EA0752CDE90042001C41F58011324682
:107670002B4600F046FB03B0BDE8F08F40462146A4
:10768000F9E7001B61EB0201001C41F580130018B3
:107690005B412018A2F5001747EB030140EAD570C3
:1076A000B6196D4111E06D084FEA360645EAC0751E
:1076B0004FEA0752001B61EB0201001C41F58011EB
:1076C00049084FEA30000019514132462B4603B0B9
:1076D000BDE8F04F00F006BB0098012240000023F7
:1076E000D0EB020263EBE073009821464FEAE074AE
:1076F000B8EB000061EB0401E9E783F000435BE7CE
:1077000081F0004158E72DE9FE4F81EA030404F0BF
:10771000004421F0004100944FF0000B23F000439F
:1077200050EA01045ED052EA03045BD0C3F30A546A
:10773000C1F30A552C44A4F2F3340194A0FB025483
:10774000C1F3130141F48011C3F3130343F4801315
:1077500001FB024400FB034E840A970A44EA815469
:1077600047EA8357A4FB076802958D0A05FB078546
:107770004FEA932C04FB0C542705029D4FEA065850
:1077800047EA1637B5EB08056EEB070C870E920E2D
:1077900047EA811742EA8312A7FB0201B6EB0B010D
:1077A00064EB00042B0D43EA0C335E1844EB1C50D1
:1077B000DA465146E7FB0201C5F313044FEA0B33E7
:1077C00043EA14534FEA0432019C43EA0603A4F14E
:1077D0000C040294009CCDE900B400F092FA03B0CE
:1077E000BDE8F08F00200146F9E72DE9F04D81EA70
:1077F000030404F0004B21F0004514464FF0000A4A
:1078000023F0004150EA050220D054EA01021DD0C5
:10781000C5F30A570246C5F31303C1F31300C1F3BE
:107820000A5640F4801543F48013A7EB0608101B9A
:10783000D64608F2FD3873EB050002D308F10108C3
:1078400001E092185B41B8F1000F03DA0020014615
:10785000BDE8F08D00204FF48011064684460EE00E
:10786000171B73EB050705D3121B63EB05030643D8
:107870004CEA010C49084FEA300092185B4150EA8B
:107880000107EDD152EA030012D082EA040083EA34
:107890000501084305D0101BAB4106D2012200238D
:1078A00006E000224FF0004302E06FF001025310A7
:1078B0001AEB06004CEB085110EB0A0041EB0B01F0
:1078C000BDE8F04D00F00EBAC1F30A52C1F3130146
:1078D00040F2FF3341F480119A4202DA002001465F
:1078E000704740F233439A42A2F2334202DC5242E2
:1078F00000F03BB800F02AB830B5041E71F1000466
:1079000004DB4FF00044404264EB0101141E73F1AC
:10791000000405DB1C464FF00043524263EB0403B6
:10792000994208BF904230BD064C074D06E0E06822
:1079300040F0010394E8070098471034AC42F6D3B6
:10794000FFF7FAFB84C50008A4C50008202A04DB61
:10795000203A00FA02F1002070479140C2F1200362
:1079600020FA03F3194390407047202A04DB203AA1
:1079700021FA02F00021704721FA02F3D040C2F14F
:1079800020029140084319467047202A06DBCB1796
:10799000203A41FA02F043EAE07306E041FA02F3CA
:1079A000D040C2F120029140084319467047C0B24E
:1079B0004FF4F05100F0F4B92DE9F34F8BB04FF0D4
:1079C000000801F10C000C464FF0010B46460DF18A
:1079D000080A01906269012101989047051E2DD087
:1079E000252D2CD0216A8847C0B1626901210198F8
:1079F0009047216A88470028F7D1411E62690198A3
:107A0000904700E0761CA1690B988847216A884757
:107A10000028F7D1E1690B988847DBE7A1690B984B
:107A200088470746A84201D1761CD3E7E1690B9845
:107A300088477F1C02D1B8F1000F6FD046E10027C4
:107A400062693D463946019890472A2804D1626907
:107A50000121019890470125DFF884926269012194
:107A600001989047A0F130010A290AD24F45E5DC80
:107A700007EB870100EB4107303FDFD445F01005ED
:107A8000ECE7E90601D46FF000476C280AD04C28D7
:107A900014D0682815D06A280DD074281CD07A28F4
:107AA0001AD01DE062690121019890476C2802D02C
:107AB00045F0040514E045F002050DE045F0200511
:107AC0000AE06269012101989047682802D045F0D8
:107AD000080505E045F400656269012101989047B9
:107AE000C4E9015765283DD019DC58287AD00CDC50
:107AF000452837D004DC252826D0412831D131E073
:107B000046282FD047282CD12CE05B2877D061283D
:107B100028D063287CD0642823D15AE0D0E06F2895
:107B200048D008DC66281DD067281BD0692821D0E2
:107B30006E2816D127E0702845D0732868D07528A4
:107B400047D078280DD14DE0A1690B9888470546AC
:107B500025283FF469AFE1690B9888476D1C3FF415
:107B60006AAFB3E023466A466FF001000B99AFF3AA
:107B700000809EE045F040006060A80723464FF07B
:107B8000000236D43EE0E8077FF447AF2068011DCD
:107B900021600068290501D506701BE7290701D57A
:107BA000068017E7A90703D5F117C0E9006111E7BF
:107BB00006600FE745F040006060A80723464FF0DD
:107BC000080216D41EE040F60E0125EA01006060AE
:107BD00016E045F040006060A80723464FF00A0217
:107BE00007D40FE045F040006060A80708D52346A1
:107BF00010226FF001000B99AFF3008059E007E00D
:107C0000234610226FF001000B99FFF735FB50E07F
:107C10004FF000094F464B46632802D05B2806D040
:107C200040E0E80601D40120A06001273AE0626943
:107C30000121019890475E2805D14FF00109626942
:107C4000494601989047216939B900210A465346AF
:107C500043F82120491C0829FADBB0B3216969B92E
:107C6000C11700EBD16253110AEB830122F01F020E
:107C7000821A01200B68904003430B606269012166
:107C8000019890475D28E8D1B9F1000F09D0002094
:107C9000514651F82020D24341F82020401C0828AA
:107CA000F7DB02AB224600976FF001000B99FFF75C
:107CB00089FB00280CDA401C08D1BBF1000F05D06D
:107CC0004FF0FF300DB0BDE8F08FFFE74046F9E719
:107CD000E90701D108F1010806444FF0000B79E6ED
:107CE000CCCCCC0C10B5141E73F1000408DA401C87
:107CF00041F1000192185B411A4301D120F00100CB
:107D000010BD2DE9F04D92469B4611B1B1FA81F2BA
:107D100002E0B0FA80F220329046FFF717FE0446E8
:107D20000F4640EA0A0041EA0B0153465A4608430F
:107D300013D0114653EA010019D0C8F14002504651
:107D4000FFF713FE05460E46504659464246FFF7DA
:107D5000FDFD084305D0012004E020463946BDE87A
:107D6000F08D0020054346EAE0762C4337430A981D
:107D70006305E40AA0EB08000022FD0A44EA475428
:107D80000A3002D500200146E9E7010510196941D2
:107D9000DDE9084500196941BDE8F04DA2E70000A2
:107DA0007F2801D9002208E0064A02EB5002C007F2
:107DB000127800D1120902F00F0201209040084011
:107DC0007047000060BF000870B58C1810F8015BA8
:107DD00015F0070301D110F8013B2A1106D110F864
:107DE000012B03E010F8016B01F8016B5B1EF9D168
:107DF0002B0705D40023521E0DD401F8013BFAE7EE
:107E000010F8013BCB1A921C03E013F8015B01F858
:107E1000015B521EF9D5A142D8D3002070BD0000ED
:107E200010B501210B4803F0DCFAC0F10100C4B227
:107E300022460121074803F069FA0221054803F0B0
:107E4000D0FAC0F10100C4B222460221014803F079
:107E50005DFA10BD000C014010B540F2096003F05E
:107E60007DFD022003F0DAFB002002F0A9FE0122D2
:107E70000221174802F01BFF0021154802F048FEBE
:107E800001221146124802F020FE05230D22002196
:107E90000F4802F0A3FE4FF4602201210C4802F0CB
:107EA0006FFE012211460A4802F04BFE084802F01C
:107EB0003AFE074802F03CFE012000F015FA0448A3
:107EC00002F0EEFD0121024802F0E2FE10BD0000CA
:107ED0000024014010B540F20A6003F03FFD02208B
:107EE00003F09CFB002002F06BFE002202211348ED
:107EF00002F0DDFE0021114802F00AFE01221146C7
:107F00000E4802F0E2FD06230E2200210B4802F08B
:107F100065FE4FF460220121084802F031FE012283
:107F20001146064802F00DFE044802F001FE322020
:107F300000F0E6F9014802F0B3FD10BD0028014051
:107F400010B500F0F1FB10BD2DE9F04105460F46DC
:107F500014461E462D480078A0B1012802D0022800
:107F60004DD100E000BF15B1284601F0B3FD00205F
:107F70002649087000F05CFB254A03C20020254911
:107F800008703DE000F054FB214AD2E900C20346EC
:107F900008461146B3EB0C0260EB0100121B70F1B6
:107FA000000013D21C4801F0FDFC1C490860084683
:107FB000006818B339461848FFF706F9F0B10120F8
:107FC0001249087000201349087017E01148007822
:107FD000B0420DDA0F480078401C0E49087015B108
:107FE000284601F077FD00F023FB094A03C205E0B3
:107FF00002200649087000200649087000E000BF12
:1080000000BF02480078BDE8F08100001C0100209C
:108010002001002028010020400200200000002054
:1080200002468A4202D24FF4007070478A420CD155
:1080300007480088C0F3080010B94FF40070F4E757
:1080400003480088C0F30800EFE70020EDE70000D8
:10805000A400002030B502460B46FF20002113E0AB
:10806000545C604008240BE000F0800525B1312508
:1080700085EA4005E8B201E04506280E651EECB22F
:10808000002CF1DC4C1CE1B29942E9D330BD000078
:1080900010B54FF480610248FFF77FF810BD000073
:1080A0004002002070B59AB034210DA8FFF775F892
:1080B00000254E48007830B101281BD002284FD04F
:1080C000032870D171E04A4E337BB2687168306822
:1080D000FFF73AFF0446012C04D1FFF7D9FF012036
:1080E00042490870022C04D1FFF7D2FF02201AB0D7
:1080F00070BD77E03E4E337FB26971693069FFF73A
:1081000023FF0446012C21D1FFF7C2FF022037498B
:10811000087034216846FFF740F80DA800F07CFA9B
:108120000DAA34A1684602F02BF86846FFF76AF8FA
:1081300085B24FF4FA713948FFF72FF830466B4695
:108140002A46016B354802F01BF800BF022C06D10D
:10815000FFF79EFF0020254908700220C7E741E095
:108160002E48FFF74FF8064621483246016A0DA80F
:1081700002F006F81E4890F82C30826A416A0DA879
:10818000FFF7E2FE0446012C04D1FFF781FF032034
:1081900016490870022C07D1FFF77AFF0020134917
:1081A00008700220A3E71CE01CE0114890F83C3066
:1081B000826B416B1948FFF7C7FE0446012C06D1BC
:1081C000FFF766FF00200949087001208FE7022CA5
:1081D00006D1FFF75DFF002004490870022086E702
:1081E00000E000BF00BF002081E700002B0100205D
:1081F000640000207B22735F76657273696F6E2264
:108200003A222573222C2022665F76657273696F8D
:108210006E223A22312E30227D00000040060020DE
:1082200070B51D48007810B1012831D115E01B4D03
:108230002B7BAA6869682868FFF786FE0446012C34
:1082400004D1FFF725FF012013490870022C03D148
:10825000FFF71EFF022070BD1BE0104D2B7FAA69A7
:1082600069692869FFF770FE0446012C06D1FFF703
:108270000FFF0020084908700120ECE7022C06D10E
:10828000FFF706FF0020044908700120E3E700E043
:1082900000BF00BF0020DEE72A01002044000020CC
:1082A00010B50E48006820F080700C490860084640
:1082B000006840F0807008600948006820F0010004
:1082C000074908600846006840F001000860002087
:1082D000486003F0EDF90349086010BDFCED00E0D3
:1082E000001000E05401002030B50446002504E0F1
:1082F0004FF47A7000F004F86D1CA542F8D330BD3D
:10830000074A5168074A1268074BB2FBF3F2504321
:1083100000BF034A5268521A8242FAD370470000E3
:10832000001000E05401002040420F0010B58021F1
:10833000014802F0E7FF10BD0020014000B587B002
:108340004FF4A06003F00AFB0421134802F04AFD39
:10835000684602F023FE00208DF81A000F480090B6
:1083600000208DF8180001900D48029001208DF832
:10837000190000200390062004904FF4005005904F
:108380006A460421044802F065FD0421024802F017
:1083900010FD07B000BD000000000240043801409D
:1083A0005801002000B587B04FF4A06003F0D6FA62
:1083B0000221134802F016FD684602F0EFFD00208E
:1083C0008DF81A000F48009000208DF818000190D9
:1083D0000D48029001208DF81900002003904FF401
:1083E00080600490C00005906A460221044802F0B3
:1083F00031FD0221024802F0DCFC07B000BD0000A4
:1084000000000240044800400009002010B500F0C0
:1084100089F9FFF745FF00F005FB00F011FA01F0C4
:1084200053FC01F083FD01F0B9FD01F0A9FC00F05F
:108430006FF901F003FB10BD10B58021014802F077
:1084400063FF10BD002001402DE9F04105460C46B8
:1084500028192A49884202D90020BDE8F081002667
:10846000C5F30A0772B602F019FFC7F50060A04213
:1084700030D240F2073002F017FE284602F096FE96
:10848000064606B135E0C7F500600544C7F5006053
:10849000241A4FEAD4280BE040F2073002F004FE21
:1084A000284602F083FE064606B122E005F5006587
:1084B000B8F10000A8F10108EED1C4F30A0098B1A8
:1084C00040F2073002F0F0FD284602F06FFE06464B
:1084D00056B10EE040F2073002F0E6FD284602F009
:1084E00065FE064606B104E002F04AFE62B60120CF
:1084F000B3E702F045FE62B60020AEE700000808D0
:1085000030B503469818084DA84201D9002030BD67
:108510001C46002004E025780D70641C491C401C9A
:108520009042F8D30120F2E7000008082DE9F04757
:1085300004460D461646A0191D49884202D900205E
:10854000BDE8F08704F0010008B10020F8E700273B
:1085500072B602F0A3FE4FF0000912E040F20730BD
:1085600002F0A2FD2988204602F0AEFD074627B1A1
:1085700002F006FE62B60020E2E7AD1CA41C09F181
:108580000109B9EB560FE9D306F0010058B140F2EA
:10859000073002F089FD287840F47F4841462046A4
:1085A00002F092FD074602F0EBFD62B60120C7E73C
:1085B0000000080810B50121064802F069FB00BF61
:1085C0000221044802F0F4FA0028F9D0014802F030
:1085D0005BFB10BD0028014010B50024002000F016
:1085E0004FF904460CB1204610BD012000F048F9B7
:1085F00004460CB12046F7E7022000F041F904469A
:108600000CB12046F0E7032000F03AF904460CB123
:108610002046E9E70020E7E710B5044604B910BD9D
:1086200002492046FEF703FE00BFF8E77408002069
:10863000014903C9704700006001002010B540F2F5
:10864000026003F08BF94FF40073012218210548F2
:1086500002F061FE4FF4806301224821014802F0DC
:108660005AFE10BD0008014010B540F2036003F04F
:1086700075F94FF48063012218210A4802F04BFE7D
:108680004FF4006301224821064802F044FE4FF4F3
:10869000C16003F063F9802301221021024802F037
:1086A0003AFE10BD000C01400020014010B540F220
:1086B000046003F053F9082301220021014802F06D
:1086C0002AFE10BD0010014010B540F2046003F016
:1086D00045F91023042200210B4802F01CFE40F251
:1086E000036003F03BF903231A461021074802F008
:1086F00012FE01221146054802F008FE0022022166
:10870000024802F003FE10BD00100140000C0140C1
:1087100010B5FFF7D9FFFFF7DDFB4FF47A7001F0DA
:1087200035FB10BD62B670471FB5684601F0E4F82E
:1087300028B10F2269460548FEF716FD04E00F2216
:1087400003490248FEF710FD1FBD0000700800201D
:108750004201002070B53848007830B101281AD0A5
:1087600002282FD0032863D146E0344D2B7BAA6822
:1087700069682868FFF7E8FB0446012C04D1FFF77D
:1087800087FC01202C490870022C03D1FFF780FCE4
:10879000022070BD4DE0294D2B7FAA6969692869C7
:1087A000FFF7D2FB0446012C04D1FFF771FC022035
:1087B00021490870022C04D1FFF76AFC02201E49EF
:1087C000087036E01D4D95F82C30AA6A696A286A4F
:1087D000FFF7BAFB0446012C04D1FFF759FC032034
:1087E00015490870022C06D1FFF752FC00201249EF
:1087F00008700220CDE71CE0104D95F83C30AA6BC4
:10880000696B286BFFF7A0FB0446012C06D1FFF72C
:108810003FFC0020084908700120BAE7022C06D16D
:10882000FFF736FC0020044908700220B1E700E0A1
:1088300000BF00BF0020ACE7290100200400002099
:1088400010B5002417E004EB44010C4A32F8210073
:1088500003F084F804EB4401084A02EB81018B68C1
:1088600004EB440102EB810102224868042102F07A
:1088700052FD601CC4B2042CE5D310BD6801002079
:1088800070B5044604EB4402644B03EB820291682A
:1088900004EB440203EB8202506802F09AFD0546A5
:1088A0005F4800EB4410007830B1012852D0022814
:1088B0006DD003287ED1A2E065B9FFF7B9FE584A12
:1088C00002EB4412C2E902010120554901EB4411B7
:1088D0000870A0E0524800EB4410007C012818D139
:1088E000FFF7A6FE4E4A02EB4412D2E906360246D4
:1088F000D21A61EB06004FF4967300219A1A814157
:1089000007D20020464901EB44110874601CC0B234
:1089100070BD434800EB4410007C022819D10020B0
:108920003F4901EB44110874FFF782FE3C4A02EB19
:108930004412D2E906360246D21A61EB06004FF421
:10894000967300219A1A814103D304F15100C0B2F9
:10895000DEE760E0FFF76CFE314A02EB4413D3E937
:108960000226831A61EB06010A229A1A71F10001AC
:1089700000D250E02DB90220294901EB44110870C2
:1089800004E00020264901EB4411087043E0EDB1FA
:108990000020234901EB44110870214800EB4410EA
:1089A000007C401C1E4901EB441108741C4800EB7C
:1089B000441000E02EE0007C01281FD1FFF738FEB4
:1089C000174A02EB4412C2E9060124E0FFF730FE29
:1089D000134A02EB4412D2E9023206460846114617
:1089E000F21A60EB01004FF47A7300219A1A814168
:1089F00004D203200A4901EB441108700BE045B191
:108A00000020074901EB4411087004F18100C0B255
:108A10007EE700E000BF00BF002079E7680100208A
:108A20008008002010B5002417E004EB44010C4A34
:108A300032F8210002F092FF04EB4401084A02EBF5
:108A400081018B6804EB440102EB81010322486839
:108A5000102102F060FC601CC4B2032CE5D310BDF1
:108A60003CBF000870B503460024002010E00E5CF7
:108A7000451C4D5D46EA0526851C4D5D46EA0546CA
:108A8000C51C4D5D46EA056543F82450641C001D75
:108A90009042ECD370BD70B503461446002200200E
:108AA00015E011F822501D5431F82250C5F3072665
:108AB000451C5E5551F82250C5F30746851C5E558E
:108AC00051F822502D0EC61C9D55521C001DA0426F
:108AD000E7D370BD2DE9FC4104460E460025002772
:108AE0002088C0F3C505382D02D2C5F1380001E059
:108AF000C5F178000746082221466846FFF7CBFFFC
:108B00003A460849204600F00BFC082269462046F8
:108B100000F006FC102204F108013046FFF7BBFF0D
:108B2000BDE8FC81A40100200021016041600549ED
:108B30008160054AC260CA430261034AD24342616E
:108B4000704700000123456789ABCDEF2DE9F04365
:108B5000C0B080468946D8F80040D8F80450D8F80C
:108B60000860D8F80C70402249466846FFF77AFF43
:108B700005EA060027EA0501084300990844FE4972
:108B800008440444E00140EA54642C4404EA05002B
:108B900026EA0401084301990844F84908440744B7
:108BA000380340EA1757274407EA040025EA07017B
:108BB000084302990844F24908440644700440EA14
:108BC000D6363E4406EA070024EA06010843039924
:108BD0000844EC4908440544A80540EA9525354475
:108BE00005EA060027EA0501084304990844E64916
:108BF00008440444E00140EA54642C4404EA0500BB
:108C000026EA0401084305990844E049084407445A
:108C1000380340EA1757274407EA040025EA07010A
:108C2000084306990844DA4908440644700440EAB7
:108C3000D6363E4406EA070024EA060108430799AF
:108C40000844D44908440544A80540EA952535441C
:108C500005EA060027EA0501084308990844CE49B9
:108C600008440444E00140EA54642C4404EA05004A
:108C700026EA0401084309990844C84908440744FE
:108C8000380340EA1757274407EA040025EA07019A
:108C900008430A990844A0F524404F38064470045C
:108CA00040EAD6363E4406EA070024EA06010843B5
:108CB0000B990844BA4908440544A80540EA95259B
:108CC000354405EA060027EA050108430C990844E3
:108CD000B44908440444E00140EA54642C4404EAE2
:108CE000050026EA040108430D990844AE490844EA
:108CF0000744380340EA1757274407EA040025EAE7
:108D0000070108430E990844A84908440644700422
:108D100040EAD6363E4406EA070024EA0601084344
:108D20000F990844A24908440544A80540EA95253E
:108D3000354405EA070026EA07010843019908447B
:108D40009C4908440444600140EAD4642C4404EA89
:108D5000060025EA06010843069908449649084496
:108D60000744780240EAD757274407EA050024EA77
:108D7000050108430B990844904908440644B00390
:108D800040EA96463E4406EA040027EA0401084306
:108D9000009908448A4908440544280540EA1535E5
:108DA000354405EA070026EA070108430599084407
:108DB000844908440444600140EAD4642C4404EA31
:108DC000060025EA060108430A9908447E4908443A
:108DD0000744780240EAD757274407EA050024EA07
:108DE000050108430F990844784908440644B00334
:108DF00040EA96463E4406EA040027EA0401084396
:108E000004990844724908440544280540EA153588
:108E1000354405EA070026EA070108430999084492
:108E20006C4908440444600140EAD4642C4404EAD8
:108E3000060025EA060108430E99084466490844DD
:108E40000744780240EAD757274407EA050024EA96
:108E50000501084303990844604908440644B003E7
:108E600040EA96463E4406EA040027EA0401084325
:108E7000089908445A4908440544280540EA15352C
:108E8000354405EA070026EA070108430D9908441E
:108E9000544908440444600140EAD4642C4404EA80
:108EA000060025EA06010843029908444E49084491
:108EB0000744780240EAD757274407EA050024EA26
:108EC0000501084307990844484908440644B0038B
:108ED00040EA96463E4406EA040027EA04010843B5
:108EE0000C990844424908440544280540EA1535D0
:108EF000354485EA06007840059908443D49084410
:108F00000444200140EA14742C4484EA05007040B3
:108F100008990844384908440744F80240EA57577A
:108F2000274487EA040068400B9908443349084401
:108F30000644300440EA16463E4486EA0700604094
:108F40000E9908442E4908440544E80540EA552591
:108F5000354485EA060078400199084429490844C7
:108F60000444200140EA14742C4484EA0500704053
:108F700004990844244949E078A46AD756B7C7E859
:108F8000DB702024EECEBDC1AF0F7CF52AC687472B
:108F9000134630A8019546FDD8988069AFF7448BF9
:108FA000BED75C892211906B937198FD8E4379A690
:108FB0002108B44962251EF640B340C0515A5E26CE
:108FC000AAC7B6E95D102FD65314440281E6A1D892
:108FD000C8FBD3E7E6CDE121D60737C3870DD5F42B
:108FE000ED145A4505E9E3A9F8A3EFFCD9026F6730
:108FF0008A4C2A8D4239FAFF81F6718722619D6D74
:109000000C38E5FD44EABEA4A9CFDE4B0844074472
:10901000F80240EA5757274487EA04006840079956
:109020000844A54908440644300440EA16463E4434
:1090300086EA070060400A990844A04908440544AC
:10904000E80540EA5525354485EA060078400D9943
:1090500008449B4908440444200140EA14742C4409
:1090600084EA050070400099084496490844074482
:10907000F80240EA5757274487EA040068400399FA
:109080000844914908440644300440EA16463E44E8
:1090900086EA07006040069908448C490844054464
:1090A000E80540EA5525354485EA060078400999E7
:1090B0000844874908440444200140EA14742C44BD
:1090C00084EA050070400C9908448249084407442A
:1090D000F80240EA5757274487EA040068400F998E
:1090E00008447D4908440644300440EA16463E449C
:1090F00086EA07006040029908447849084405441C
:10910000E80540EA5525354465EA070070400099B6
:109110000844734908440444A00140EA94642C4480
:1091200064EA06006840079908446E490844074409
:10913000B80240EA9757274467EA050060400E9955
:109140000844694908440644F00340EA56463E4450
:1091500066EA0400784005990844644908440544D7
:10916000680540EAD525354465EA070070400C994A
:1091700008445F4908440444A00140EA94642C4434
:1091800064EA06006840039908445A4908440744C1
:10919000B80240EA9757274467EA050060400A99F9
:1091A0000844554908440644F00340EA56463E4404
:1091B00066EA04007840019908445049084405448F
:1091C000680540EAD525354465EA070070400899EE
:1091D00008444B4908440444A00140EA94642C44E8
:1091E00064EA060068400F99084446490844074469
:1091F000B80240EA9757274467EA0500604006999D
:109200000844414908440644F00340EA56463E44B7
:1092100066EA040078400D9908443C490844054436
:10922000680540EAD525354465EA07007040049991
:109230000844374908440444A00140EA94642C449B
:1092400064EA060068400B99084432490844074420
:10925000B80240EA9757274467EA05006040029940
:1092600008442D4908440644F00340EA56463E446B
:1092700066EA0400784009990844284908440544EE
:10928000680540EAD5253544D8F800002044C8F8E0
:109290000000D8F804002844C8F80400D8F80800F2
:1092A0003044C8F80800D8F80C003844C8F80C005E
:1092B00040B0BDE8F0830000604BBBF670BCBFBEA1
:1092C000C67E9B28FA27A1EA8530EFD4051D8804C5
:1092D00039D0D4D9E599DBE6F87CA21F6556ACC439
:1092E000442229F497FF2A43A72394AB39A093FC87
:1092F000C3595B6592CC0C8F7DF4EFFFD15D848503
:109300004F7EA86FE0E62CFE144301A3A111084E86
:10931000827E53F735F23ABDBBD2D72A91D386EB82
:109320002DE9F04704460F4615460026B046B146E3
:109330002088C0F3C508C8F14009206800EBC500CB
:1093400020602068B0EBC50F02D26068401C6060EE
:10935000606800EB557060604D451CD304F1180146
:1093600001EB08004A463946FDF7FEFE04F11801FC
:1093700004F10800FFF7EAFB4E4605E0B91904F1D5
:109380000800FFF7E3FB403606F14000A842F5D99C
:109390004FF0000800E00026AA1BB91904F11803D9
:1093A00003EB0800FDF7E0FEBDE8F08730B5C1B083
:1093B0004FF4807101A8FDF7F0FEDB480078072824
:1093C00079D2DFE800F004456181FCFBFA00D74860
:1093D000007808B3FFF72CF9D54B0CCB821A61EB60
:1093E000030140F6B830101A71F1000105D20020D7
:1093F000CD490870012041B030BDFFF719F9CC4AC2
:1094000003C2CC490869FDF7FDFE0446C94822465F
:10941000016801A800F0B4FEC648037B8268416879
:1094200001A8FEF791FDC14908700846007801289F
:1094300004D1FEF72DFE0120BB490870BB4800781F
:10944000022804D1FEF724FE0020B749087067E126
:10945000B84C237FA26961692069FEF775FDB349A5
:10946000087008460078012802D10220AE49087031
:10947000AE480078022806D1FEF70AFE0020AA496D
:1094800008700220B7E74BE1AA48416AAA48FDF7F5
:109490009BFE88B1A84800F095F9A848FFF744FB67
:1094A000A7480168A748FEF7CFFFFEF7F1FD0320AC
:1094B0009D49087007E032E1FEF7EAFD00209A4975
:1094C0000870012097E72BE19848007800284CD0DD
:1094D000002400259C480068401C9B4908609B486C
:1094E000016899480068FEF79BFD994908600846A5
:1094F0000068002823D197A000F032FEA04800F0B9
:109500001FFD78B19FA000F02BFE00BF00208E4908
:1095100008604FF400708E49086000BF0520824942
:109520000870FDE000208049087000BF864908608F
:109530004FF400708649086000BF02205BE7824854
:109540000068401E4402824800682044451E4FF4D3
:10955000FA719348FDF721FE764800952346914A1B
:10956000016C8F4800F00CFE00BF8D48FDF74AFEED
:10957000044670482246016B01A800F001FE6D48C8
:1095800090F83C30826B416B01A8FEF7DDFC674927
:10959000087008460078012804D1FEF779FD042000
:1095A0006149087061480078022813D1FEF770FD08
:1095B00000BF00206449086002E089E054E00AE04E
:1095C0004FF400706249086000BF002056490870DF
:1095D000022010E7A4E0574890F84C30826C416CB0
:1095E0006F48FEF7B1FC5149087008460078012821
:1095F00028D16D4801686DA000F0B2FD6A4A12687A
:10960000534B1B68D21A921E4B4BD1184E4A12680C
:10961000521E4C4B03EB42204D4A1268FEF786FF68
:10962000614800684A4A1268801A801E424A8118BE
:10963000474802684148FFF773FEFEF729FD032003
:10964000394908703948007802280CD10020364981
:10965000087000BF3C4908604FF400703C49086046
:1096600000BF0220C7E65BE04FF4FA714C48FDF7FB
:1096700094FD30484B4A016E494800F081FD48484E
:10968000FDF7C0FD04462B482246016D01A800F0FD
:1096900077FD284890F85C30826D416D01A8FEF797
:1096A00053FC2249087008460078012804D1FEF7CF
:1096B000EFFC06201C4908701C480078022806D1DF
:1096C000FEF7E6FC002018490870022093E627E028
:1096D000184890F86C30826E416E3148FEF734FCC9
:1096E000124908700846007801280CD1FEF7D0FC1A
:1096F00000200D490870324A21491148006800F0E5
:10970000F3FC012077E609480078022806D1FEF72D
:10971000BFFC00200449087002206CE600E000BF96
:1097200000BF002067E600002D0100202C01002072
:1097300030010020AC00002040020020E8010020A1
:10974000A40000200030040838010020A8000020F8
:109750003C0100200D0A2323232323232323234F0B
:1097600054415F446F776E4C6F61642066696E6927
:109770007368212323232323232323230D0A00009B
:10978000480800200D0A6D643520636865636B200E
:10979000737563636573732121210D0A0000000056
:1097A000400600203408002000000020675F706B36
:1097B00074526376644C656E203D2025640A000077
:1097C0003E08002038B5044623A12046FDF7FCFCE6
:1097D000051E04D0234A24A12846FDF731FD27A108
:1097E0002046FDF7F1FC051E04D0264A26A1284696
:1097F000FDF726FD28A12046FDF7E6FC051E04D056
:10980000274A28A12846FDF71BFD29A12046FDF780
:10981000DBFC051E04D0284A28A12846FDF710FDD0
:10982000254800901E48174A0E49036827A000F0FB
:1098300097FC1B480088C0F3080028B91848006846
:10984000400A2C49086006E015480068012101EB38
:1098500050202849086038BD2274617267657422FF
:109860003A0000003E08002022746172676574228D
:109870003A2225395B5E225D000000002274696493
:10988000223A00003408002022746964223A253903
:109890005B5E2C5D000000002273697A65223A004D
:1098A000A40000202273697A65223A257500000021
:1098B000226D6435223A000048080020226D64358C
:1098C000223A222533395B5E225D00007665723ACA
:1098D0002025732C207469643A2025732C20736929
:1098E0007A653A2025642C206D64353A25730D0A7B
:1098F00000000000A8000020FEB504460F2221460B
:109900001348FEF7FDFD08B90020FEBD0E212046DC
:10991000FEF7A0FB0646A07B211DCDE900160290B4
:1099200022680C4B0F210C4800F01AFC20680949F2
:10993000884201D00020E8E70E212046FEF78AFB8E
:109940000546A07BA84201D00020DEE70120DCE72D
:1099500000F80708EFBEADDE24C5000870B5044668
:109960000CB9002070BD352221460C48FEF7C8FD19
:1099700008B90020F6E720680949884201D0002094
:10998000F0E734212046FEF765FB054694F83400E5
:10999000A84201D00020E5E70120E3E700F0070836
:1099A000EFBEADDE10B504460D480078A8B100202A
:1099B0000B4908700B480C4902682046FDF7D4FBA0
:1099C00021460AA000F0CCFB064801680648FDF7D6
:1099D000E4FB0448008880B210BD0020FCE70000D2
:1099E0009C01002098010020000900205265637648
:1099F000576966694D6F64756C655374723A726528
:109A000063762077696669207273703A25730A005D
:109A100072B600BFBFF34F8F0648006800F4E060E5
:109A200005490843001D03490860BFF34F8F00BF7D
:109A300000BFFEE70CED00E00000FA0510B50120C4
:109A400001F068F945F65A2188422ED040F21C7088
:109A500001F084FF40F21B7001F080FF01F0D4FDA3
:109A600001F052F94FF4006001F0E0FE4FF40060A5
:109A700001F0ECFE4FF4807001F0A0FF40F60F0003
:109A800001F06CFF01F0E4FF01F0C8FF47F6FF7042
:109A900001F0CEFF01F0C2FF002001F0AFFF45F65C
:109AA0005A21012001F052F910BD40F21C7001F062
:109AB00055FF40F21B7001F051FF40F60F0001F01E
:109AC0004DFF01F0A1FD01F0C3FF01F0A7FF00BFB2
:109AD000EAE7000010B5044621460AA000F040FB6A
:109AE0000BE021780C4802F080F900BF07210A48FA
:109AF00002F0D7F90028F9D0641C20780028F0D1B2
:109B000010BD0000776966692073656E6420636D1F
:109B1000643A25730A0000000048004000B58FB089
:109B200001A8FFF71BFF10B900200FB000BD0120F6
:109B30008DF80800342101A8FEF78CFA8DF8380062
:109B400035210848FEF780FC08B90020EDE73522F2
:109B500001A90448FEF7EAFC08B90020E5E7012066
:109B6000E3E7000000F007080448D0E900305A1C81
:109B700040F100000149C1E9002070476001002068
:109B80001CB54E48006840F470004C4908604C48D1
:109B9000006840F001004A49086000BF484800687A
:109BA00000F002000028F9D04548406800F00C00A1
:109BB000082866D100BF0020019002E00198401CF7
:109BC000019001985028F9D33D48406800900098D2
:109BD00020F0F0000090009840F08000009038499C
:109BE000009848600020019002E00198401C01901C
:109BF00001985028F9D3324840680090009820F02E
:109C0000F0000090009840F0900000902C490098DF
:109C100048600020019002E00198401C01900198EA
:109C20005028F9D3264840680090009820F0F000B2
:109C30000090009840F0A0000090214900984860F2
:109C40000020019002E00198401C019001985028EA
:109C5000F9D31B4840680090009820F0F000009075
:109C6000009840F0B000009015490098486000202E
:109C7000019002E00198401C019001985028F9D30E
:109C800000BF0F48406820F003000D494860C8201D
:109C900000F0F3FE0A4800680A49084008490860D5
:109CA0004FF41F0088600846006820F48020086098
:109CB00000204860C86201F069FF1CBD88ED00E02B
:109CC00000100240FFFFF6FE70B5012001F0F0FC2D
:109CD0004FF47A71B0FBF1F4601EB0F1807F00D3D5
:109CE0001BE0601E4FF0E021486148170F2100285B
:109CF00007DA0A07150E094A00F00F031B1FD55497
:109D000003E00A07130E064A135400BF00204FF069
:109D1000E02188610720086100BF70BD18ED00E0F8
:109D200000E400E010B50121124801F0FAFF01281B
:109D30001FD101210F4801F0F1FF0F480088401C9E
:109D40000D490880088800EBD0714910A0EB410153
:109D500009B9FEF765F8084800884FF4C87190FB10
:109D6000F1F201FB1200012803D1FEF723FC0349A5
:109D7000088010BD000C0040A20100209E010020C0
:109D800010B5FEF793FCFEF767F810BD1FB504464B
:109D900040F2037001F0E2FD0D4801F0FBFE684661
:109DA00001F0CBFF7720ADF80000601E02906946FD
:109DB000074801F063FF0121054801F0ABFF0022D5
:109DC0001146322001F0B4FB014801F051FF1FBDE4
:109DD000000C004010B51049104802F07EF8D0B1D8
:109DE0000E4801F0FDFF04210D4801F0F8F8C0F124
:109DF0000600062802D101200A49087004210848FB
:109E000000F0BEFF06220421054801F0D5F8042128
:109E1000034800F0CEFF10BD0403040000380140E9
:109E2000000002405E01002010B51149114802F007
:109E300054F8D8B10F4801F0D3FF02210E4801F0C9
:109E4000CEF8C0F580600D49086001200C4908700B
:109E50000221094800F094FF4FF480620221064875
:109E600001F0AAF80221044800F0A3FF10BD000091
:109E70000403040000480040000002409801002054
:109E80009C01002010B5044640F20E6001F066FD12
:109E9000104801F0AFFF21460E4801F059FF08219C
:109EA0000C4802F040F804210A4802F032F84FF45E
:109EB0004171084802F004F84021064801F0E2FF31
:109EC00000221146252001F033FB024801F0E4FF97
:109ED00010BD00000038014010B5044640F2127079
:109EE00001F03CFD104801F085FF21460E4801F0CD
:109EF0002FFF08210C4802F016F804210A4802F04E
:109F000008F84FF44171084801F0DAFF4021064893
:109F100001F0B8FF00221146272001F009FB02489A
:109F200001F0BAFF10BD00000048004010B5FEF778
:109F300085FB4FF4E130FFF7A5FFFEF7FFF910BDF9
:109F400030B58FB0044614B900200FB030BD2421C5
:109F500002A8FDF722F90BA90D48FEF7BBFD00256D
:109F60000BE00BA8425D0BA101A800F009F901A9C3
:109F700002A8FDF71DF9681CC5B2102DF1DB2146C2
:109F800002A8FDF746F908B90120DEE70020DCE76A
:109F9000E8010020253032780000000010B5FEF7FF
:109FA00063FB4FF4E130FFF797FFFEF7FBF9FEF795
:109FB000BDF904A000F0D4F86420FEF795F9FEF78F
:109FC0003BFA10BD77696669206D6F64756C652C0E
:109FD0006E6F772068777265736574206974210AE3
:109FE0000000000010B536480078062864D2DFE88B
:109FF00000F0031423324062FEF7ACFB0446012C50
:10A0000005D100202F49087001202D490870022C2D
:10A0100002D104202A4908704FE0FEF701F90446F6
:10A02000012C03D102202649087004E0022C02D141
:10A0300000202349087040E0FEF734F80446012C64
:10A0400003D103201E49087004E0022C02D1002035
:10A050001B49087031E0FFF7A9F90446012C02D131
:10A06000032017490870022C02D1002014490870FF
:10A0700023E014480078012816DAFEF757F9002388
:10A080004FF4FA7210A11846FDF75EFF0446022C49
:10A0900010D100200A4908700A480078401C09497C
:10A0A0000870FEF7C9F905E00AA000F059F805208C
:10A0B0000349087001E000E000BF00BF10BD0000D0
:10A0C00040010020410100206465616462656566AD
:10A0D0000000000077696669206D6F64756C65200B
:10A0E0006572726F72210A0070B58EB005460E4619
:10A0F000144606B114B900200EB070BD3821684670
:10A10000FDF74BF81448009000208DF80400CDF8BE
:10A110000550202231460DF10900FDF767F80922AC
:10A1200021460DF12A00FDF761F834216846FDF75C
:10A1300091FF8DF8340035210848FEF785F908B9FC
:10A140000020D9E7352269460448FEF7EFF908B93F
:10A150000020D1E70120CFE7EFBEADDE00F0070819
:10A160000FB4054B10B503A9044A029800F0EEF8AD
:10A1700010BC5DF814FB0000E1B20008E40100200F
:10A180000FB4084B10B504A902AA039800F0DEF83A
:10A19000044602A9002000F07EFC204610BC5DF8B9
:10A1A00014FB000097AA000802E008C8121F08C1AB
:10A1B000002AFAD170477047002001E001C1121F48
:10A1C000002AFBD1704700002DE9FF5F82B000211B
:10A1D000DDE90430020DDDF840B0034318D044F649
:10A1E0001050A2F2FF3242431514119801281FD0DB
:10A1F000A5EB0B00401C5FEA000A4FF000064E4F33
:10A20000DFF83891B046504615D5CAF1000413E086
:10A21000119801244AA3012801D16FEA0B01029889
:10A22000119AC0E90031C0E9024206B0BDE8F09FD2
:10A23000CBF10000DFE704460021404A491842EB19
:10A240000450CDE9001012E0E00707D032463B464B
:10A2500040464946FDF757FA8046894632463B4616
:10A2600010461946FDF74FFA06460F466410002CBB
:10A27000EAD1DDE90401DDE90023BAF1000F06DAD5
:10A28000FDF741FA42464B46FDF73DFA05E0FDF782
:10A29000ACFA42464B46FDF7A8FA04460E460022A9
:10A2A000284BFDF729FB03D84FF0FF30014607E0AC
:10A2B0000022254B20463146FDF77EF9FDF704FBD1
:10A2C000102409E0002C0ADB0A220023FDF700F924
:10A2D000039B30321A55641E50EA0102F2D1641C0D
:10A2E000039AC4F111031444119A012A03D00122E4
:10A2F00008430DD10AE0084304D000204FF0110BB1
:10A30000119072E7A3EB0B056D1E0DE05B4504DDBC
:10A310004FF0000205F1010504E003DA4FF00002FE
:10A32000A5F10105002AECD002981199C0E902318B
:10A33000C0E9004579E70000000014400000F03F4C
:10A34000300000000000F0430000E03F2DE9FF4F27
:10A3500095B09B468946064600250FE2252877D111
:10A3600000242746F84A0121059400E0044316F82A
:10A37000013F203B01FA03F01042F7D130782A2840
:10A3800011D06FF02F033078A0F13002092A16D8CF
:10A39000059A44F0020402EB820203EB42021044ED
:10A3A000761C0590EFE759F8042B0592002A03DA92
:10A3B000504244F40054059044F00204761C307876
:10A3C0002E2816D116F8010F44F004042A280DD0C7
:10A3D0006FF02F023078A0F13003092B09D807EB7A
:10A3E000870302EB4303C718761CF3E759F8047B95
:10A3F000761C30786C280FD006DC4C2817D06828E3
:10A400000DD06A2814D104E0742810D07A280FD116
:10A410000DE044F400140AE044F4801401E044F434
:10A4200040147278824202D104F58014761C761CA6
:10A43000307866280BD013DC582877D009DC002848
:10A4400075D04528F6D04628F4D047281AD19DE18A
:10A4500018E0632835D0642879D0652812D195E1B9
:10A46000702873D008DC6728F1D069286FD06E2877
:10A470000DD06F2806D1B5E073282CD0752875D083
:10A48000782874D05A46179990476D1C75E1C4F32B
:10A490000250022809D003280DD0D9F80010042852
:10A4A0000DD00D6009F1040967E1D9F80010EA1731
:10A4B000C1E90052F6E7D9F800100D80F2E70D70FF
:10A4C000F0E719F8041B8DF8001000208DF801004A
:10A4D000EA46012003E059F804AB4FF0FF30610772
:10A4E0004FF0000102D40DE008F101018846B942A5
:10A4F0000FDA8045F8DB1AF808100029F4D108E0DB
:10A5000008F1010188468142FADB1AF80810002997
:10A51000F6D105985B46A0EB080721463846179A06
:10A5200000F094FA284400EB080507E04DE029E12B
:10A530000DE01AF8010B5A4617999047B8F1010837
:10A54000F7D25B4621463846179A13E142E00A22C9
:10A550000092C4F302524FF0000A022A08D059F8C0
:10A5600004CB032A4FEAEC710AD00DE029E02AE07F
:10A5700009F1070121F00702F2E802C1914609E062
:10A580000FFA8CFC4FEAEC71042A03D14FFA8CFCD1
:10A590004FEAEC71002907DA0A460021DCF1000CD1
:10A5A00061EB02012D2202E0220504D52B228DF859
:10A5B0000420012203E0E20701D02022F7E79046C1
:10A5C00059E00A2102E010220DE010214FF0000AAC
:10A5D00000910BE010224FF0000A44F00404082719
:10A5E000009203E008224FF0000A0092C4F30252E6
:10A5F000022A05D059F804CB0021032A08D009E02B
:10A6000009F1070121F00702F2E802C1914605E0D5
:10A610001FFA8CFC042A01D10CF0FF0C4FF000084B
:10A62000220728D5702806D0009B83F0100353EA38
:10A630000A0305D00EE040228DF80420012208E034
:10A640005CEA010206D030228DF804208DF8050066
:10A6500002229046009B83F0080353EA0A030AD1C2
:10A660005CEA010201D1620705D530228DF8042091
:10A670004FF001087F1E582804D034A003900EA884
:10A6800002900DE036A0F9E753466046009AFCF7C9
:10A690001FFF84460398825C0298401E029002705D
:10A6A0005CEA0100F0D1029806A9081A00F1200A1C
:10A6B000600702D524F4803400E00127574502DD0D
:10A6C000A7EB0A0000E0002000EB0A0100900598CB
:10A6D0004144401A0590E00306D45B462146179A90
:10A6E000059800F0B3F90544002706E001A85A4692
:10A6F000C05D179990476D1C7F1C4745F6DBE00352
:10A700000CD55B462146179A059800F09FF9054441
:10A7100004E030205A46179990476D1C0099481E56
:10A7200000900029F5DC08E0029802995A4600786A
:10A73000491C0291179990476D1CBAF10001AAF1CA
:10A74000010AF1DC65E100000928010030313233F3
:10A75000343536373839616263646566000000005D
:10A760003031323334353637383941424344454647
:10A770000000000000F058F90544761C30780028ED
:10A780007FF4ECAD19B02846BDE8F08F620700D425
:10A79000062709F1070222F0070CFCE80223E14634
:10A7A00003F000485FEA080C02D00FF2702C0DE0B5
:10A7B0005FEA045C02D50FF2682C07E05FEAC47C14
:10A7C00002D00FF2602C01E0AFF2700C4FF0FF38B6
:10A7D00023F00043CDF850C065280CD006DC452896
:10A7E00009D046281DD047283DD13DE0662818D025
:10A7F00067287ED138E00021112F01DB112000E015
:10A80000781CCDE9000106A90EA8FFF7DDFCDDE903
:10A810000F010E9A03910021009207F1010A0491A1
:10A820004DE04FF000400097CDE9011006A90EA8B9
:10A83000FFF7CAFCDDE90F0203920E9B119900227B
:10A84000DDF80CA00093049211B9791C00EB010A09
:10A85000B7EB0A0004D4C0F1FF3007F1010A0490FD
:10A86000AAEB0700019044E0012F00DA0127002144
:10A87000112F01DD112000E03846CDE9000106A9C5
:10A880000EA8FFF7A1FCDDE90F010E9A039100214C
:10A8900004910092BA4621070CD40399514500DA7D
:10A8A0008A46BAF1010F05DD009AAAF10101515C57
:10A8B000302908D0B84202DA10F1040F06DA01217B
:10A8C000CDE9011015E0AAF10101E9E7002805DC56
:10A8D000049901440491AAEB000102E0411C514596
:10A8E00000DD8A460499401A401C01904FF0004058
:10A8F0000290200704D40198504501DBCDF8048074
:10A9000000208DF84F0002980DF14F07B0F1004F75
:10A9100025D02B200E9002984FF0020800280CDA68
:10A92000404202902D200E9007E00A210298FCF789
:10A93000B9FD3031029007F8011DB8F10001A8F10E
:10A940000108F2DC02980028EFD1791E0E980870F9
:10A95000307800F0200040F0450007F8020D12A802
:10A96000C01B00F107081498007800B1012000EB2B
:10A970000A01019801EBE07105984144401A401E1C
:10A980000590E00306D45B462146179A059800F02F
:10A990005DF805441498007818B15A461799904705
:10A9A0006D1CE00324D55B462146179A059800F0FC
:10A9B0004DF805441CE00498002807DBDDE903019D
:10A9C000884203DD0098405C179901E01799302018
:10A9D0005A469047049805F10105401C04900198DF
:10A9E000401E019004D12E205A46179990476D1CA5
:10A9F000BAF10001AAF1010ADDDC05E017F8010B4C
:10AA00005A46179990476D1CB8F10001A8F101084A
:10AA1000F4DC5B462146179A0598ABE62D00000052
:10AA20002B000000200000002DE9F0410446002525
:10AA30001E461746880404D405E039462020B04756
:10AA40006D1C641EF9D52846BDE8F0812DE9F04162
:10AA5000044600251E469046C80301D5302700E075
:10AA60002027880404D505E041463846B0476D1CD0
:10AA7000641EF9D52846BDE8F08108B50021009193
:10AA800002E00099491C009100EB8001009AB2EBB2
:10AA9000410FF6D308BD0A68531C0B601070704755
:10AAA000816841F00801816000BF816801F0080100
:10AAB0000029FAD1816841F00401816000BF8168FA
:10AAC00001F004010029FAD1704730B5012902D004
:10AAD00002291AD10CE0C36A23F47003C362C36A6B
:10AAE000541E4FF4700505EA04542343C3620DE07D
:10AAF000836B23F440138363836B541E4FF4401520
:10AB000005EA04542343836300E000BF00BF30BD67
:10AB100021B1826842F40062826003E0826822F41C
:10AB2000006282607047816841F480718160704783
:10AB3000816801F0010119B9816841F0010181606A
:10AB4000704772B101F001031BB1836843F48013B5
:10AB5000836001F0020393B1836843F40043836090
:10AB60000DE001F001031BB1836823F480138360BF
:10AB700001F002031BB1836823F400438360704734
:10AB8000012902D0022910D107E0836823F4602351
:10AB9000836083681343836008E0836823F4E043A1
:10ABA000836083681343836000E000BF00BF704789
:10ABB0000246002013680B4003B1012070470000DB
:10ABC0000549096821F47021034A1160114609689A
:10ABD000014311607047000004240140F0B51D4698
:10ABE00006290CD2436B01EB81071F26BE40B343FD
:10ABF00001EB810602FA06F63343436322E00C2997
:10AC00000ED2036B8E1F06EB86071F26BE40B34392
:10AC10008E1F06EB860602FA06F63343036311E045
:10AC200010290FD2C36AA1F10C0606EB86071F2676
:10AC3000BE40B343A1F10C0606EB860602FA06F607
:10AC40003343C3620A2A0CD2046902EB4207072687
:10AC5000BE40B44302EB420605FA06F634430461F3
:10AC600011E0122A0FD2C468A2F10A0606EB4607C9
:10AC70000726BE40B443A2F10A0606EB460605FAD3
:10AC800006F63443C460F0BD0146C86C80B270471C
:10AC900001F001021AB1826842F48002826001F080
:10ACA00002021AB1826842F4001282607047AAB1AF
:10ACB00001F480731BB1436843F48073436001F473
:10ACC00080631BB1436843F48063436001F0020377
:10ACD000CBB1836843F00203836014E001F4807316
:10ACE0001BB1436823F48073436001F480631BB19C
:10ACF000436823F48063436001F002031BB183685F
:10AD000023F002038360704710B500F0C7FC00F029
:10AD1000BBFC10BD014600200B2909DB2A2907DCFA
:10AD2000A1F10B02084B03EB8202B2F8400C09E0E0
:10AD3000012907DB0A2905DC4A1E034B03EB8202CB
:10AD4000B2F8040C70470000006000400B2809DBDB
:10AD50002A2807DCA0F10B02084B03EB8202A2F8C1
:10AD6000401C09E0012807DB0A2805DC421E034BD2
:10AD700003EB8202A2F8041C704700000060004050
:10AD800070B505460C462146284600F0FBF808B988
:10AD900000BFFEE704EB8400810005F10800405885
:10ADA00020F0010104EB8400820005F108008150CD
:10ADB00070BD70B505460C462146284600F0E2F805
:10ADC00008B900BFFEE704EB8400810005F108002C
:10ADD000405840F0010104EB8400820005F10800B6
:10ADE000815070BD70B504460D462946204600F0DE
:10ADF000C9F808B900BFFEE705EB8500810004F142
:10AE00000800405820F0010105EB8500820004F1A4
:10AE100008008150002105EB8500820004F1080044
:10AE2000815005EB8500820004F10C00815005EB98
:10AE30008500820004F11000815005EB850082003E
:10AE400004F1140081506068AA000F21914008436A
:10AE5000606070BD2DE9F04104460D461646294656
:10AE6000204600F08FF808B900BFFEE705EB85002B
:10AE7000820004F110003168815005EB85008200EA
:10AE800004F11400B1688150308A81B205EB85006D
:10AE9000820004F10C00815005EB8500810004F173
:10AEA0000800475827F47C57F168706808437169B7
:10AEB0000843074305EB8500810004F10800475073
:10AEC000307E01280ED105EB8500810004F10800D9
:10AED000405840F0400105EB8500820004F1080075
:10AEE00081500DE005EB8500810004F10800405819
:10AEF00020F0400105EB8500820004F1080081503C
:10AF0000707E01280ED105EB8500810004F1080058
:10AF1000405840F0800105EB8500820004F10800F4
:10AF200081500DE005EB8500810004F108004058D8
:10AF300020F0800105EB8500820004F108008150BB
:10AF4000B07E70B905EB8500810004F1080040581F
:10AF500020F0100105EB8500820004F1080081500B
:10AF60000DE005EB8500810004F10800405840F039
:10AF7000100105EB8500820004F108008150BDE856
:10AF8000F081000002460120034B9A4202D10429BD
:10AF900000DD0020704700000004024008B900BF37
:10AFA000FEE700210160416001768160C160417669
:10AFB000016181764161704770B506460C461546C1
:10AFC00021463046FFF7DEFF08B900BFFEE7A9B211
:10AFD00004EB8400820006F10C00815070BD70B556
:10AFE00005460C4621462846FFF7CCFF08B900BFAE
:10AFF000FEE704EB8400810005F10C00405870BDB1
:10B0000000B50346012200BF00F00CF802465B1EAB
:10B01000012A01D1002BF7D1012A00D104221046C8
:10B0200000BD000000200A49C96801F0010109B112
:10B0300001200CE00649C96801F0100109B10320A4
:10B0400005E00349C96801F0040101B1022070471D
:10B050000020024000B50346012200BF00F00CF8BA
:10B0600002465B1E012A01D1002BF7D1012A00D133
:10B070000422104600BD000000200A49C96C01F0FE
:10B08000010109B101200CE00649C96C01F0100171
:10B0900009B1032005E00349C96C01F0040101B1C5
:10B0A0000220704700200240064A02EB9011096816
:10B0B00000F01F0301229A401143024B03EB901250
:10B0C000116070470020024070B504460D4600260E
:10B0D00027480088B0F5007F31D92648844217D22E
:10B0E0002548FFF78DFF0646002E3ED12348006914
:10B0F00040F001002149086125801F48FFF780FFCB
:10B1000006461E48006920F001001C4908612CE039
:10B110001948FFF79FFF06463EBB1848006D40F0F8
:10B1200001001649086525801348FFF793FF06467E
:10B130001248006D20F001001049086515E00E4826
:10B14000FFF75EFF064686B90C48006940F0010033
:10B150000A49086125800848FFF752FF064607485C
:10B16000006920F0010005490861304670BD00000B
:10B17000E0F7FF1FFFFF07080000FF0F002002405D
:10B180000848006940F080000649086106480088C8
:10B19000B0F5007F04D90846006D40F080000865D6
:10B1A0007047000000200240E0F7FF1F30B5054661
:10B1B00036480088B0F5007F48D9354885421ED210
:10B1C0003448FFF71DFF0446002C5CD1324800696B
:10B1D00040F002003049086108464561006940F0CE
:10B1E0004000086100BF00BF2A48FFF709FF04467E
:10B1F0002948006920F002002749086143E02548FA
:10B20000FFF728FF0446002C3DD12348006D40F095
:10B2100002002149086508464565C06900F0020042
:10B2200008B1084645611C48006D40F040001A49CD
:10B23000086500BF00BF1748FFF70CFF044616481B
:10B24000006D20F00200144908651CE01148FFF76A
:10B25000D7FE0446BCB91048006940F002000E4910
:10B26000086108464561006940F04000086100BF80
:10B2700000BF0848FFF7C4FE04460748006920F0F5
:10B28000020005490861204630BD0000E0F7FF1FBD
:10B29000FFFF07080000FF0F002002400C48006974
:10B2A00000F0800020B10B48094948600A48486016
:10B2B0000A480088B0F5007F09D90548006D00F004
:10B2C000800020B10348024948640348486470473D
:10B2D0000020024023016745AB89EFCDE0F7FF1F57
:10B2E00070B504460D46E1B2054800F07EFD00BF92
:10B2F0000721034800F0D5FD0028F9D0204670BD95
:10B300000038014041617047016170470AB1016135
:10B3100000E041617047F0B5044616460025002262
:10B3200001F00F0501F0100747B1042E05D145F0DB
:10B330000305E76B1F43E76300E0354300201EE091
:10B34000012787401F40C7B122684FEA800C0F27B2
:10B3500007FA0CF7BA43870005FA07F73A4328299A
:10B3600004D1012787401F40676105E0482903D1C8
:10B37000012787401F4027612260471CB8B2082878
:10B38000DED3082022E0012787401F40E7B1626832
:10B39000A0F108074FEA870C0F2707FA0CF7BA430A
:10B3A000A0F10807BF0005FA07F73A43282904D19E
:10B3B000012787401F40676105E0482903D1012725
:10B3C00087401F4027616260471CB8B21028DAD35B
:10B3D000F0BD02469068084008B101207047002087
:10B3E000FCE70246D068084008B101207047002001
:10B3F000FCE70000FDF70AF8FCF7A2FD002412A00C
:10B40000FEF7AEFE1BA0FEF7ABFE1AA0FEF7A8FEED
:10B4100018A0FEF7A5FE22A0FEF7A2FE12E0FEF79E
:10B42000E1FDFDF7D9F80446812C0BD1FEF776FB40
:10B4300028B126A0FEF794FEFEF7EAFA02E02FA05C
:10B44000FEF78EFEEBE700000A2A2A2A2A2A2A2A79
:10B450002A2A2A2A2A2A2A2A2A2A2A3131312A2A37
:10B460002A2A2A2A2A2A2A2A2A2A2A2A2A2A2A2A3C
:10B470002A0A00002A2A2A2A2A2A2A2A2A2A2A2AA0
:10B4800054686973206973204170702044656D6F42
:10B490002A2A2A2A2A2A2A2A2A2A2A2A0A000000AA
:10B4A0002A2A2A2A2A2A2A2A2A2A2A2A2A2A2A2AFC
:10B4B0002A2A2A2A2A2A2A2A2A2A2A2A2A2A2A2AEC
:10B4C0002A2A2A2A2A2A2A2A0A0000002A2A2A2A7A
:10B4D0002A2A2A2A2A2A2A2A726573657420746FF6
:10B4E00020626F6F746C6F616465722A2A2A2A2A3F
:10B4F0002A2A2A2A2A2A2A0A000000002A2A2A2A74
:10B500002A2A2A2A2A2A2A2A6E6F2076616C6964DE
:10B51000206669726D776172652C2069676E6F7243
:10B52000652A2A2A2A2A2A2A2A2A2A2A2A0A0000B4
:10B530002DE9F04103460D46164600240027A0469B
:10B540002A48006800F4E060B0F5E06F03D100BF66
:10B550004FF0040830E02548006800F4E060B0F5E2
:10B56000C06F03D101274FF0030825E01F48006892
:10B5700000F4E060B0F5A06F02D10227B8461BE0EE
:10B580001A48006800F4E060B0F5806F03D103272B
:10B590004FF0010810E01548006800F4E060B0F5D5
:10B5A000407F03D104274FF0000805E04FF4A0606E
:10B5B00000F020F80227B846C7F1040005FA00F4AD
:10B5C000C8F104010F20C84030400443240108485A
:10B5D000C45403F01F01012088405911890001F172
:10B5E000E021C1F80001BDE8F08100000CED00E0B1
:10B5F00000E400E002490143024A11607047000084
:10B600000000FA050CED00E00348006840F480708B
:10B61000014908607047000000700040184B5968ED
:10B62000184B1940164BDA6A22F000520C2820D22F
:10B63000DFE800F0060708091F0C1F0D1516171884
:10B6400000BF00BF00BF41EA803113E000BF20F01F
:10B6500004004FF0805343EA803319430AE000BFEF
:10B6600000BF00BF20F00C0041EA803142F00052E0
:10B6700000E000BF00BF024B5960DA627047000073
:10B6800000100240FF3FFFEF0348006A20F48030C3
:10B690000149086270470000001002400348006A38
:10B6A00040F48030014908627047000000100240F9
:10B6B0002DE9F04F8CB0074600200A904AA090E890
:10B6C000004CC068CDE905BECDF810A007900FF280
:10B6D0001C1ADAE9000ACDE9020A0FF2101ADAE9B7
:10B6E000000ACDE9000A44484068C0F381000B908D
:10B6F0000B9820B1012804D002283FD103E03F4A33
:10B700003EE03E4A3CE03C48406800F4803CBCF5EA
:10B71000803F12D13848C06A00F08048B8F1000F6D
:10B7200001D1364B00E0364B3348406800F4003915
:10B73000B9F5003F02D15B0800E0324B2E4840686B
:10B74000C0F383412C48406800F0006008B141F02C
:10B7500010012948406800F0804008B141F0200104
:10B760000F2901D2891C06E00F2903D33E2901D8F5
:10B77000491C00E03F2103FB01F201E01F4A00BF2A
:10B7800000BF1D484068C0F3031504A8465D22FAB7
:10B7900006F419484068C0F3022502A8465D24FA61
:10B7A00006F0099014484068C0F3C2251DF80560F2
:10B7B00024FA06F0089037B1012F06D0022F06D0E8
:10B7C000032F0AD106E00A9208E00A9406E00998DD
:10B7D0000A9003E008980A9000E000BF00BF0A98B2
:10B7E0000CB0BDE8F08F0000000000000000000079
:10B7F00001020304060708090010024000127A0043
:10B80000006CDC0200093D000146074A02EB911082
:10B81000006801F01F0301229A40104008B1012086
:10B8200070470020FCE7000000100240064A02EBCF
:10B830009011096800F01F0301229A401143024B46
:10B8400003EB90121160704700100240F0B50646FD
:10B85000002400270025B6F5006F20D005DC8EB34C
:10B86000102E0BD0182E73D161E0B6F5106F4CD0AE
:10B87000A6F54050103800286AD134E004E01120C9
:10B88000FFF7C2FF0546641C1DB94FF6FF708442E6
:10B89000F5D11120FFF7B8FF00B1012759E005E00D
:10B8A00040F60100FFF7B0FF0546641C1DB96FF0BC
:10B8B0007C408442F4D140F60100FFF7A5FF00B1BF
:10B8C000012746E0FFE704E00120FFF79DFF054662
:10B8D000641C15B9B4F5A06FF6D10120FFF794FFF1
:10B8E00000B1012735E005E043F21100FFF78CFFBE
:10B8F0000546641C15B918488442F5D143F211007D
:10B90000FFF782FF00B1012723E005E040F60110B8
:10B91000FFF77AFF0546641C15B90F488442F5D13C
:10B9200040F60110FFF770FF00B1012711E004E0BD
:10B930001920FFF769FF0546641C15B906488442C3
:10B94000F6D11920FFF760FF00B1012701E0FFE702
:10B9500000BF00BF3846F0BDFFFF0F00064A02EBF4
:10B960009011096800F01F0301229A401143024B15
:10B9700003EB90121160704700100240064A02EB80
:10B980009011096800F01F0301229A409143024B75
:10B9900003EB90121160704700100240064A02EB60
:10B9A0009011096800F01F0301229A401143024BD5
:10B9B00003EB90121160704700100240044A116AB4
:10B9C00021F4407141EA0002014B1A627047000005
:10B9D000001002400348006840F010000149086070
:10B9E00070470000042800400348006820F0100061
:10B9F00001490860704700000428004000B5024675
:10BA0000FFF7E8FF100C0449086090B2091D0860B8
:10BA1000FFF7EAFF00BD00001828004000BF034800
:10BA2000006800F020000028F9D07047042800408A
:10BA300000B50246FFF7CEFFC2F30340034908609A
:10BA400090B2091D0860FFF7CFFF00BD0828004035
:10BA50000648006820F008000449086000BF034859
:10BA6000006800F008000028F9D070470428004062
:10BA700008B500200021414A126842F480323F4B51
:10BA80001A6000BF401C3D4A126802F4003119B927
:10BA90004FF6FF729042F5D1384A126802F4003234
:10BAA0000AB900BFFEE7354AD26942F08052334BF3
:10BAB000DA61334A126842F44042314B1A602F4A2D
:10BAC00052682E4B5A601A4652685A601A4652689B
:10BAD00042F480625A601A46526822F440325A6038
:10BAE0001A46526842F440325A601A465268254B50
:10BAF0001A40224B5A601A465268234B1A431F4B76
:10BB00005A601A46126842F080721A6000BF1B4ADF
:10BB1000126802F00072002AF9D0194A126842F441
:10BB20008032174B1A6000BF154A526802F4803207
:10BB3000002AF9D0124A126842F40032104B1A60FF
:10BB400000BF0F4A526802F40032002AF9D00B4AB3
:10BB500052680092009A22F003020092009A42F08A
:10BB600002020092054B009A5A6000BF034A5268D5
:10BB700002F00802002AF9D008BD000000100240BF
:10BB800000700040FFFFC3B70000340810B5FFF796
:10BB90006FFF10BD10B504463349601A8C4244D083
:10BBA0000CDCB4F1804F1CD03048204410B3B0F509
:10BBB000806F28D0B0F5006F52D12DE0B0F5806FC6
:10BBC0003CD0B0F58E3F03D0B0F5923F48D13EE077
:10BBD00040F20B30FFF7E2FE40F20B30FFF7CEFEF3
:10BBE0003FE04FF48060FFF7D9FE4FF48060FFF72D
:10BBF000C5FE36E040F20140FFF7D0FE40F20140C2
:10BC0000FFF7BCFE2DE040F20240FFF7C7FE40F216
:10BC10000240FFF7B3FE24E040F20340FFF7BEFE10
:10BC200040F20340FFF7AAFE1BE040F20440FFF79A
:10BC3000B5FE40F20440FFF7A1FE12E040F20540DD
:10BC4000FFF7ACFE40F20540FFF798FE09E040F236
:10BC50000D30FFF7A3FE40F20D30FFF78FFE00E03E
:10BC600000BF00BF10BD00000010004000FCFFBF7F
:10BC7000016841F001010160704700000A8882629A
:10BC80001D4A90420ED0B0F1804F0BD01B4A90421B
:10BC900008D01B4A904205D01A4A904202D01A4A54
:10BCA00090420BD1026822F07002026002684B8859
:10BCB0001A43026002688B881A4302608A68C26273
:10BCC000124A90420AD0124A904207D0026822F4E7
:10BCD000407202600268CB881A430260064A9042B2
:10BCE00002D0094A904201D10A7B0263426942F0C4
:10BCF0000102426170470000002C01400004004036
:10BD000000080040000C00400034014000100040DA
:10BD100000140040C2680A43C2607047CA4302610F
:10BD200070470246D06800EA01031069084010B16C
:10BD30000BB1012070470020FCE700210180418009
:10BD400081804FF6FF7181600021C18001737047CF
:10BD50002DE9F04704460D460027B846B9460026AF
:10BD60001D49601A8C421CD006DC1C48204470B16E
:10BD7000B0F5806F1FD10FE0B0F5806F16D0B0F531
:10BD80006C4F18D10320FFF793FC074614E0022004
:10BD9000FFF78EFC07460FE00220FFF789FC0746FD
:10BDA0000AE00220FFF784FC074605E00220FFF7C7
:10BDB0007FFC074600E000BF00BF07EB5500B0FB6B
:10BDC000F5F64FF6F07006EA000806F00F0948EAAB
:10BDD0000900A060BDE8F087004C004000BCFFBF38
:10BDE00001464868C0F308007047C1F3080242608A
:10BDF0007047000010B504462049601A8C4228D0D4
:10BE000006DC1F48204490B1B0F5806F33D117E0B5
:10BE1000B0F5806F26D0B0F56C4F2CD140F20E30CB
:10BE2000FFF7BCFD40F20E30FFF7A8FD24E040F222
:10BE30001140FFF7B3FD40F21140FFF79FFD1BE0FB
:10BE400040F21240FFF7AAFD40F21240FFF796FDC4
:10BE500012E040F21340FFF7A1FD40F21340FFF75C
:10BE60008DFD09E040F21440FFF798FD40F21440C8
:10BE7000FFF784FD00E000BF00BF10BD004C004094
:10BE800000BCFFBF426922F040024261426901F0FA
:10BE900040031A4342617047C16841F40051C160D8
:10BEA000704710B5024602EB9110006801F01F04C4
:10BEB0000123A340184008B1012010BD0020FCE779
:10BEC00010B500EB9112126801F01F040123A3408A
:10BED0001A4300EB91131A6010BD70B5024600239F
:10BEE0000024C1F38910105801F01F060125B54048
:10BEF00000EA050302EB91500068C1F304460125F6
:10BF0000B54000EA050414B10BB1012070BD00205A
:10BF1000FCE7C26822F00402C260C26801F00403B8
:10BF20001A43C2607047C26822F00802C260C26849
:10BF300001F008031A43C2607047000002060000C7
:10BF40000008014000010000060600000018014042
:10BF50004000000007060000001C014040000000F7
:10BF6000DDDDDDDDDCBBBBDDDDDDDDDDDDDDDDDD46
:10BF70009888888888888888777777777788888886
:10BF8000855555566666666666666666666888881E
:10BF90008333333222222222222222222228888D17
:10BFA00047455420687474703A2F2F696F742D615F
:10BFB00070692E6865636C6F7564732E636F6D2F87
:10BFC000667573652D6F74612F4B5077323853410E
:10BFD0007965412F626F617264312F25732F646F11
:10BFE000776E6C6F616420485454502F312E310DA0
:10BFF0000A417574686F72697A6174696F6E3A7616
:10C00000657273696F6E3D323031382D31302D33AA
:10C0100031267265733D70726F6475637473252584
:10C0200032464B50773238534179654125253246A7
:10C030006465766963657325253246626F61726453
:10C04000312665743D31383030353233343932265B
:10C050006D6574686F643D6D6435267369676E3D08
:10C060004E55463448514732764A36695A4B323833
:10C0700031556770356725253344252533440D0A2E
:10C0800052616E67653A62797465733D25642D254A
:10C09000640D0A486F73743A696F742D6170692E6C
:10C0A0006865636C6F7564732E636F6D0D0A0D0A9E
:10C0B0000000000047455420687474703A2F2F69BF
:10C0C0006F742D6170692E6865636C6F7564732E73
:10C0D000636F6D2F667573652D6F74612F4B50778D
:10C0E000323853417965412F626F617264312F6339
:10C0F0006865636B3F747970653D3226766572734F
:10C10000696F6E3D312E3020485454502F312E31FE
:10C110000D0A417574686F72697A6174696F6E3A5D
:10C1200076657273696F6E3D323031382D31302D46
:10C130003331267265733D70726F64756374732555
:10C1400032464B5077323853417965412532466447
:10C15000657669636573253246626F617264312664
:10C1600065743D31383030353233343932266D65BF
:10C1700074686F643D6D6435267369676E3D4E5516
:10C18000463448514732764A36695A4B323831552F
:10C19000677035672533442533440D0A436F6E7449
:10C1A000656E742D547970653A6170706C69636165
:10C1B00074696F6E2F6A736F6E0D0A486F73743AED
:10C1C000696F742D6170692E6865636C6F75647337
:10C1D0002E636F6D0D0A0D0A0000000041542B43C1
:10C1E000574A41503D22707261746F6C222C22318B
:10C1F0003233343536373839220D0A0041542B4357
:10C20000495053544152543D22544350222C2269E8
:10C210006F742D6170692E6865636C6F7564732E21
:10C22000636F6D222C38300D0A00000041544530F8
:10C230000D0A000041542B43574D4F44453D310DED
:10C240000A00000041542B43495053544154453F88
:10C250000D0A000041542B5253540D0A00000000F7
:10C2600041542B43495053454E443D25640D0A002B
:10C27000504F535420687474703A2F2F696F742D87
:10C280006170692E6865636C6F7564732E636F6D82
:10C290002F667573652D6F74612F4B50773238534D
:10C2A000417965412F626F617264312F25732F735D
:10C2B000746174757320485454502F312E310D0A17
:10C2C000417574686F72697A6174696F6E3A7665E8
:10C2D0007273696F6E3D323031382D31302D33310C
:10C2E000267265733D70726F6475637473252532B1
:10C2F000464B5077323853417965412525324664A3
:10C3000065766963657325253246626F61726431B3
:10C310002665743D31383030353233343932266D4C
:10C320006574686F643D6D6435267369676E3D4E54
:10C3300055463448514732764A36695A4B3238317D
:10C34000556770356725253344252533440D0A4349
:10C350006F6E74656E742D547970653A6170706C8F
:10C3600069636174696F6E2F6A736F6E0D0A486F2F
:10C3700073743A696F742D6170692E6865636C6FB0
:10C380007564732E636F6D0D0A436F6E74656E7402
:10C390002D4C656E6774683A31320D0A0D0A7B22A6
:10C3A00073746570223A3230317D0D0A000000004E
:10C3B0004F74612D4572726E6F3A2030000000009C
:10C3C0003E0000002B495044000000004F4B00008D
:10C3D000474F542049500000434F4E4E45435400B0
:10C3E0007375636300000000646561646265616683
:10C3F00000000000504F535420687474703A2F2F7F
:10C40000696F742D6170692E6865636C6F756473F4
:10C410002E636F6D2F667573652D6F74612F4B5092
:10C4200077323853417965412F626F617264312FE1
:10C4300076657273696F6E20485454502F312E31D7
:10C440000D0A417574686F72697A6174696F6E3A2A
:10C4500076657273696F6E3D323031382D31302D13
:10C460003331267265733D70726F64756374732522
:10C470002532464B50773238534179654125253274
:10C48000466465766963657325253246626F61721D
:10C4900064312665743D31383030353233343932C9
:10C4A000266D6574686F643D6D6435267369676ECB
:10C4B0003D4E55463448514732764A36695A4B32DA
:10C4C0003831556770356725253344252533440DAC
:10C4D0000A436F6E74656E742D547970653A61709D
:10C4E000706C69636174696F6E2F6A736F6E0D0A89
:10C4F000486F73743A696F742D6170692E68656353
:10C500006C6F7564732E636F6D0D0A436F6E746587
:10C510006E742D4C656E6774683A25640D0A0D0AB9
:10C520002573000052656164537973506172616DC7
:10C530003A2073697A656F663D25642C206D6167CA
:10C5400069633D30782530385828657870656374A4
:10C5500020307825303858292C207665723D257397
:10C560002C2063726343616C633D30782530325810
:10C570002C2063726353746F7265643D307825308C
:10C5800032580A00A4C5000800000020E80100009D
:10C59000C87D000834C60008E80100201813000018
:10C5A000B8A10008411354C21408CCC32408F401F4
:10C5B00072031AE81063D007DA2C209A3410411B5A
:10C5C000DCC12C1910CB983A406388131AFC205A0E
:10C5D000D81029205A444069101A60109AC0301AA5
:10C5E000F40C1AE004E310276928696813B4C0DB6F
:10C5F00008C4282938E930695813A0BF9B08B03017
:10C60000E9201A7010A97859DF91E910114202004F
:10C61000081FEFBEADDE312E303302062C0801407C
:10C62000442A080C142001409A200C9A400CE28005
:04C63000D90F0135E8
:04000005080071314D
:00000001FF
