:020000040800F2
:1000000068080020450100084D0100084F01000864
:1000100051010008530100085501000800000000CC
:100020000000000000000000000000005701000870
:1000300059010008000000005B0100085D01000894
:100040005F0100085F0100085F0100085F01000810
:100050005F0100085F0100085F0100085F01000800
:100060005F0100085F0100085F0100085F010008F0
:100070005F0100085F0100085F0100085F010008E0
:100080005F0100085F0100085F0100085F010008D0
:100090005F0100085F0100085F0100085F010008C0
:1000A0005F0100085F0100085F0100085F010008B0
:1000B0005F0100085F0100085F0100085F010008A0
:1000C0005F0100085F0100085F0100085F01000890
:1000D0005F0100085F0100085F0100085F01000880
:1000E0005F0100085F0100085F0100085F01000870
:1000F0005F0100085F0100085F0100085F01000860
:100100005F0100085F0100085F0100085F0100084F
:100110005F0100085F0100085F0100085F0100083F
:100120005F0100085F0100085F0100085F0100082F
:10013000DFF80CD000F084F800480047AD1B000841
:10014000680800200648804706480047FEE7FEE7AB
:10015000FEE7FEE7FEE7FEE7FEE7FEE7FEE7FEE777
:10016000251000083101000840EA01039B0703D075
:1001700009E008C9121F08C0042AFAD203E011F8E6
:10018000013B00F8013B521EF9D27047D2B201E0A8
:1001900000F8012B491EFBD270470022F6E710B58C
:1001A00013460A4604461946FFF7F0FF204610BDE5
:1001B00010B5002200E0521C835C8C5CA34201D18C
:1001C000002BF8D1D8B2E1B2401A10BD034611F8A5
:1001D000012B00F8012B002AF9D1184670472DE9B0
:1001E000F05F0546002092469B46884606468146BB
:1001F00040241BE0284641464746224600F041F88D
:1002000053465A46C01A914110D311461846224609
:1002100000F028F82D1A67EB01084F46224601200E
:10022000002100F01FF817EB00094E41201EA4F139
:100230000104DFDC484631462A464346BDE8F09FCC
:10024000064C074D06E0E06840F0010394E8070023
:1002500098471034AC42F6D3FFF76EFF0821000830
:1002600028210008202A04DB203A00FA02F10020AD
:1002700070479140C2F1200320FA03F319439040E4
:100280007047202A04DB203A21FA02F0002170474F
:1002900021FA02F3D040C2F12002914008431946EE
:1002A000704710B500F050F910BD000070B50B4854
:1002B00045680468B4F1005F0ED9094884420BD246
:1002C00072B600BF84F3088800BF4FF4E0414FF0DE
:1002D000006001F0DBFCA84770BD00000070000862
:1002E0000000012030B502460B46FF20002113E03C
:1002F000545C604008240BE000F0800525B13125F6
:1003000085EA4005E8B201E04506280E651EECB21C
:10031000002CF1DC4C1CE1B29942E9D330BD01461E
:1003200009B9002070470879012801D00020F9E7B9
:10033000D1F8050020B1D1F80500B0F5703F01D922
:100340000020EFE70120EDE710B53521014800F06E
:100350002FF810BD00F0070810B50E48006820F017
:1003600080700C4908600846006840F080700860A2
:100370000948006820F00100074908600846006845
:1003800040F0010008600020486001F08BFC034948
:10039000086010BDFCED00E0001000E0100000203F
:1003A00010B500F0E7F8FFF7D7FF00F07FFF10BDB2
:1003B0002DE9F04105460C4628192A49884202D900
:1003C0000020BDE8F0810026C5F30A0772B601F0EF
:1003D0005BFBC7F50060A04230D240F2073001F06D
:1003E00059FA284601F0D8FA064606B135E0C7F5B5
:1003F00000600544C7F50060241A4FEAD4280BE0DA
:1004000040F2073001F046FA284601F0C5FA0646E8
:1004100006B122E005F50065B8F10000A8F1010879
:10042000EED1C4F30A0098B140F2073001F032FA7D
:10043000284601F0B1FA064656B10EE040F2073008
:1004400001F028FA284601F0A7FA064606B104E0B2
:1004500001F08CFA62B60120B3E701F087FA62B6C8
:100460000020AEE70000080830B503469818084D94
:10047000A84201D9002030BD1C46002004E02578A8
:100480000D70641C491C401C9042F8D30120F2E717
:10049000000008082DE9F04704460D461646A0194D
:1004A0001D49884202D90020BDE8F08704F0010010
:1004B00008B10020F8E7002772B601F0E5FA4FF026
:1004C000000912E040F2073001F0E4F929882046E3
:1004D00001F0F0F9074627B101F048FA62B60020B2
:1004E000E2E7AD1CA41C09F10109B9EB560FE9D3F1
:1004F00006F0010058B140F2073001F0CBF928783E
:1005000040F47F484146204601F0D4F9074601F007
:100510002DFA62B60120C7E70000080810B540F2C6
:10052000026001F06BFC4FF40073012218210548B2
:1005300001F0DEFA4FF4806301224821014801F006
:10054000D7FA10BD000801401FB5684600F0FAFC5C
:1005500028B10F2269460548FFF706FE04E00F2286
:1005600003490248FFF700FE1FBD000058000020AD
:100570000000002010B5002417E004EB44010C4AF1
:1005800032F8210001F03AFC04EB4401084A02EB86
:1005900081018B6804EB440102EB8101032248686E
:1005A000102101F0A5FA601CC4B2032CE5D310BDE4
:1005B000E420000870B503460024002010E00E5C23
:1005C000451C4D5D46EA0526851C4D5D46EA0546FF
:1005D000C51C4D5D46EA056543F82450641C001DAA
:1005E0009042ECD370BD70B5034614460022002043
:1005F00015E011F822501D5431F82250C5F307269A
:10060000451C5E5551F82250C5F30746851C5E55C2
:1006100051F822502D0EC61C9D55521C001DA042A3
:10062000E7D370BD2DE9FC4104460E4600250027A6
:100630002088C0F3C505382D02D2C5F1380001E08D
:10064000C5F178000746082221466846FFF7CBFF30
:100650003A460849204600F00BFC0822694620462D
:1006600000F006FC102204F108013046FFF7BBFF42
:10067000BDE8FC81140000200021016041600549B3
:100680008160054AC260CA430261034AD2434261A3
:10069000704700000123456789ABCDEF2DE9F0439A
:1006A000C0B080468946D8F80040D8F80450D8F841
:1006B0000860D8F80C70402249466846FFF77AFF78
:1006C00005EA060027EA0501084300990844FE49A7
:1006D00008440444E00140EA54642C4404EA050060
:1006E00026EA0401084301990844F84908440744EC
:1006F000380340EA1757274407EA040025EA0701B0
:10070000084302990844F24908440644700440EA48
:10071000D6363E4406EA070024EA06010843039958
:100720000844EC4908440544A80540EA95253544A9
:1007300005EA060027EA0501084304990844E6494A
:1007400008440444E00140EA54642C4404EA0500EF
:1007500026EA0401084305990844E049084407448F
:10076000380340EA1757274407EA040025EA07013F
:10077000084306990844DA4908440644700440EAEC
:10078000D6363E4406EA070024EA060108430799E4
:100790000844D44908440544A80540EA9525354451
:1007A00005EA060027EA0501084308990844CE49EE
:1007B00008440444E00140EA54642C4404EA05007F
:1007C00026EA0401084309990844C8490844074433
:1007D000380340EA1757274407EA040025EA0701CF
:1007E00008430A990844A0F524404F380644700491
:1007F00040EAD6363E4406EA070024EA06010843EA
:100800000B990844BA4908440544A80540EA9525CF
:10081000354405EA060027EA050108430C99084417
:10082000B44908440444E00140EA54642C4404EA16
:10083000050026EA040108430D990844AE4908441E
:100840000744380340EA1757274407EA040025EA1B
:10085000070108430E990844A84908440644700457
:1008600040EAD6363E4406EA070024EA0601084379
:100870000F990844A24908440544A80540EA952573
:10088000354405EA070026EA0701084301990844B0
:100890009C4908440444600140EAD4642C4404EABE
:1008A000060025EA060108430699084496490844CB
:1008B0000744780240EAD757274407EA050024EAAC
:1008C000050108430B990844904908440644B003C5
:1008D00040EA96463E4406EA040027EA040108433B
:1008E000009908448A4908440544280540EA15351A
:1008F000354405EA070026EA07010843059908443C
:10090000844908440444600140EAD4642C4404EA65
:10091000060025EA060108430A9908447E4908446E
:100920000744780240EAD757274407EA050024EA3B
:10093000050108430F990844784908440644B00368
:1009400040EA96463E4406EA040027EA04010843CA
:1009500004990844724908440544280540EA1535BD
:10096000354405EA070026EA0701084309990844C7
:100970006C4908440444600140EAD4642C4404EA0D
:10098000060025EA060108430E9908446649084412
:100990000744780240EAD757274407EA050024EACB
:1009A0000501084303990844604908440644B0031C
:1009B00040EA96463E4406EA040027EA040108435A
:1009C000089908445A4908440544280540EA153561
:1009D000354405EA070026EA070108430D99084453
:1009E000544908440444600140EAD4642C4404EAB5
:1009F000060025EA06010843029908444E490844C6
:100A00000744780240EAD757274407EA050024EA5A
:100A10000501084307990844484908440644B003BF
:100A200040EA96463E4406EA040027EA04010843E9
:100A30000C990844424908440544280540EA153504
:100A4000354485EA06007840059908443D49084444
:100A50000444200140EA14742C4484EA05007040E8
:100A600008990844384908440744F80240EA5757AF
:100A7000274487EA040068400B9908443349084436
:100A80000644300440EA16463E4486EA07006040C9
:100A90000E9908442E4908440544E80540EA5525C6
:100AA000354485EA060078400199084429490844FC
:100AB0000444200140EA14742C4484EA0500704088
:100AC00004990844244949E078A46AD756B7C7E88E
:100AD000DB702024EECEBDC1AF0F7CF52AC6874760
:100AE000134630A8019546FDD8988069AFF7448B2E
:100AF000BED75C892211906B937198FD8E4379A6C5
:100B00002108B44962251EF640B340C0515A5E2602
:100B1000AAC7B6E95D102FD65314440281E6A1D8C6
:100B2000C8FBD3E7E6CDE121D60737C3870DD5F45F
:100B3000ED145A4505E9E3A9F8A3EFFCD9026F6764
:100B40008A4C2A8D4239FAFF81F6718722619D6DA8
:100B50000C38E5FD44EABEA4A9CFDE4B08440744A7
:100B6000F80240EA5757274487EA0400684007998B
:100B70000844A54908440644300440EA16463E4469
:100B800086EA070060400A990844A04908440544E1
:100B9000E80540EA5525354485EA060078400D9978
:100BA00008449B4908440444200140EA14742C443E
:100BB00084EA0500704000990844964908440744B7
:100BC000F80240EA5757274487EA0400684003992F
:100BD0000844914908440644300440EA16463E441D
:100BE00086EA07006040069908448C490844054499
:100BF000E80540EA5525354485EA0600784009991C
:100C00000844874908440444200140EA14742C44F1
:100C100084EA050070400C9908448249084407445E
:100C2000F80240EA5757274487EA040068400F99C2
:100C300008447D4908440644300440EA16463E44D0
:100C400086EA070060400299084478490844054450
:100C5000E80540EA5525354465EA070070400099EB
:100C60000844734908440444A00140EA94642C44B5
:100C700064EA06006840079908446E49084407443E
:100C8000B80240EA9757274467EA050060400E998A
:100C90000844694908440644F00340EA56463E4485
:100CA00066EA04007840059908446449084405440C
:100CB000680540EAD525354465EA070070400C997F
:100CC00008445F4908440444A00140EA94642C4469
:100CD00064EA06006840039908445A4908440744F6
:100CE000B80240EA9757274467EA050060400A992E
:100CF0000844554908440644F00340EA56463E4439
:100D000066EA0400784001990844504908440544C3
:100D1000680540EAD525354465EA07007040089922
:100D200008444B4908440444A00140EA94642C441C
:100D300064EA060068400F9908444649084407449D
:100D4000B80240EA9757274467EA050060400699D1
:100D50000844414908440644F00340EA56463E44EC
:100D600066EA040078400D9908443C49084405446B
:100D7000680540EAD525354465EA070070400499C6
:100D80000844374908440444A00140EA94642C44D0
:100D900064EA060068400B99084432490844074455
:100DA000B80240EA9757274467EA05006040029975
:100DB00008442D4908440644F00340EA56463E44A0
:100DC00066EA040078400999084428490844054423
:100DD000680540EAD5253544D8F800002044C8F815
:100DE0000000D8F804002844C8F80400D8F8080027
:100DF0003044C8F80800D8F80C003844C8F80C0093
:100E000040B0BDE8F0830000604BBBF670BCBFBED5
:100E1000C67E9B28FA27A1EA8530EFD4051D8804F9
:100E200039D0D4D9E599DBE6F87CA21F6556ACC46D
:100E3000442229F497FF2A43A72394AB39A093FCBB
:100E4000C3595B6592CC0C8F7DF4EFFFD15D848537
:100E50004F7EA86FE0E62CFE144301A3A111084EBB
:100E6000827E53F735F23ABDBBD2D72A91D386EBB7
:100E70002DE9F04704460F4615460026B046B14618
:100E80002088C0F3C508C8F14009206800EBC50000
:100E900020602068B0EBC50F02D26068401C606023
:100EA000606800EB557060604D451CD304F118017B
:100EB00001EB08004A463946FFF756F904F11801DC
:100EC00004F10800FFF7EAFB4E4605E0B91904F10A
:100ED0000800FFF7E3FB403606F14000A842F5D9D1
:100EE0004FF0000800E00026AA1BB91904F118030E
:100EF00003EB0800FFF738F9BDE8F08770B58AB05A
:100F000005460E46242101A8FFF747F9002408E012
:100F10002A5D01A901EB440008A100F0FFF9601C63
:100F2000C4B2102CF4DB314601A8FFF741F910B927
:100F300001200AB070BD0020FBE7000025303278A8
:100F40000000000070B504460F2221460B48FFF751
:100F50008BFA08B9002070BD20680949884201D089
:100F60000020F8E70E212046FFF7BCF90546A07BDC
:100F7000A84201D00020EEE70120ECE700F80708C6
:100F8000EFBEADDE70B504460CB9002070BD352251
:100F900021460C48FFF768FA08B90020F6E72068F8
:100FA0000949884201D00020F0E734212046FFF7AC
:100FB00099F9054694F83400A84201D00020E5E7ED
:100FC0000120E3E700F00708EFBEADDE1FB50446E1
:100FD00014B9002004B010BD21461148FFF7E8F80D
:100FE00008B90120F6E70F220D49091F6846FFF7EF
:100FF000BBF80A2101A8FFF7D0F8214601A8FFF7A6
:10100000E5F8684600F05AF908B90020E2E70F2237
:1010100069460348001FFFF7A7F80120DAE7000040
:101020005C0000201CB54E48006840F470004C493C
:1010300008604C48006840F001004A49086000BF61
:101040004848006800F002000028F9D04548406890
:1010500000F00C00082866D100BF0020019002E0DB
:101060000198401C019001985028F9D33D484068F0
:101070000090009820F0F0000090009840F0800070
:1010800000903849009848600020019002E00198E3
:10109000401C019001985028F9D3324840680090D4
:1010A000009820F0F0000090009840F09000009030
:1010B0002C49009848600020019002E00198401CF3
:1010C000019001985028F9D3264840680090009874
:1010D00020F0F0000090009840F0A000009021491E
:1010E000009848600020019002E00198401C0190A7
:1010F00001985028F9D31B4840680090009820F0D0
:10110000F0000090009840F0B00000901549009861
:1011100048600020019002E00198401C0190019875
:101120005028F9D300BF0F48406820F003000D4954
:101130004860C82000F047FB0A4800680A49084098
:10114000084908604FF41F0088600846006820F4D2
:101150008020086000204860C86200F00DFF1CBDC0
:1011600088ED00E000100240FFFFF6FE10B50446D7
:1011700040F20E6000F042FE074800F04DFF2146AD
:10118000054800F0FDFE0821034800F0A1FF0248D9
:1011900000F08AFF10BD000000380140F0B5ADF549
:1011A0001B7D04461CB900200DF51B7DF0BDD4F855
:1011B000052004F1090304F12A0124A000F09EF89F
:1011C000D4F805102A48FFF7F3F885A8FFF754FA7A
:1011D000002523E0D4F80500461BB6F5007F02D9B0
:1011E0004FF4007000E030460746224968183A463E
:1011F00005A9FFF739F908B90020D5E71C49681897
:101200003A4605A9FFF746F908B90020CCE73A4667
:1012100005A985A8FFF72CFE05F50075D4F8050093
:10122000A842D7D801A985A8FFF7FCF904F1090164
:1012300001A8FFF763FE20B90FA000F05FF80020BF
:10124000B2E713A000F05AF80120ADE775706461B1
:1012500074696E673A207665723D25732C20736938
:101260007A653D25752C206D64353D25730A000097
:101270000070000800300408757064617465206DAA
:10128000643520636865636B206661696C210A00C0
:10129000757064617465206D643520636865636B87
:1012A0002073756363657373210A000010B5FFF73F
:1012B00035F94FF4E130FFF759FF10BD70B5044622
:1012C0000F25B5F5006F01DD002070BD0E21204611
:1012D000FFF708F8A0730F210748FFF769F808B96E
:1012E0000020F2E70F2221460348FFF7D3F808B9A0
:1012F0000020EAE70120E8E700F807080FB4054BF3
:1013000010B503A9044A029800F02CF810BC5DF84F
:1013100014FB0000CD1A0008540000200FB4084B45
:1013200010B504A902AA039800F01CF8044602A90B
:10133000002000F056FA204610BC5DF814FB0000B7
:10134000E317000802E008C8121F08C1002AFAD1FA
:1013500070477047002001E001C1121F002AFBD135
:10136000704700002DE9FF4F8DB00F46054600265F
:1013700006E025280BD0DDE90F1290476D1C761C86
:1013800028780028F5D111B03046BDE8F08F002450
:10139000A246A1460122EC4900E0044315F8013FB2
:1013A000203B02FA03F00842F7D128782A2810D00F
:1013B0006FF02F022878A0F13001092914D80AEB28
:1013C0008A0102EB410144F0020400EB010A6D1CAA
:1013D000F0E701CF5FEA000A03D544F40054CAF1F4
:1013E000000A44F002046D1C28782E2817D115F845
:1013F000010F44F004042A280ED06FF02F02287841
:10140000A0F1300109290AD809EB890102EB410159
:1014100000EB01096D1CF2E757F8049B6D1C28785E
:101420006C280FD006DC4C2817D068280DD06A280D
:1014300014D104E0742810D07A280FD10DE044F4C0
:1014400000140AE044F4801401E044F44014697884
:10145000814202D104F580146D1C6D1C2A786E2A1D
:101460001FD00CDC632A31D004DC002A8BD0582A30
:1014700011D1A3E0642A68D0692A0CD165E0732AEF
:101480002ED004DC6F2A73D0702A04D19BE0752A19
:101490006FD0782A6ED01046DDE90F129047761C87
:1014A00050E1C4F30250022806D0032809D00428D2
:1014B00001CF09D0066045E101CFF117C0E9006115
:1014C00040E101CF06803DE106703BE117F8040BD7
:1014D0008DF8000000208DF80100EB46012003E0AC
:1014E00057F804BB4FF0FF3061074FF0000102D402
:1014F0000DE008F10101884649450FDA8045F8DB27
:101500001BF808100029F4D108E008F10101884611
:101510008142FADB1BF808100029F6D1DDE90F2320
:10152000AAEB08008146214600F036F9304400EB72
:10153000080604E0DDE90F121BF8010B9047B8F133
:101540000108F7D221464846F7E00A21C4F30253C6
:101550004FF0000B0891022B04D001CFC117032BD1
:1015600009D00AE0FF1D27F00707F7E8020108E0AD
:1015700032E01FE020E000B2C117042B01D140B2DD
:10158000C117031E71F1000307DA4FF0000CD0EB16
:101590000C006CEB01012D2302E0230504D52B2365
:1015A0008DF82430012303E0E30701D02023F7E77F
:1015B000984658E00A2110E010210EE010204FF06C
:1015C000000B08900CE010214FF0000B44F00404D5
:1015D0004FF00809089103E008214FF0000B089133
:1015E000C4F30253022B04D001CF0021032B06D0F9
:1015F00006E0FF1D27F00707F7E8020103E080B2CD
:10160000042B00D1C0B24FF0000823072BD5702A5D
:1016100007D0DDF820C08CF0100C5CEA0B0C05D074
:101620000EE040238DF82430012308E050EA010346
:1016300006D030238DF824308DF8252002239846DB
:10164000DDF820C08CF0080C5CEA0B0C0BD150EAE2
:10165000010301D1630706D530238DF824304FF004
:101660000108A9F10109582A04D038A20B9208AA4E
:101670000A920BE03AA2F9E75B46089AFEF7AFFD43
:101680000B9B9B5C0A9A521E0A92137050EA01024D
:10169000F2D10A98ADEB000000F1200B600702D5F3
:1016A00024F4803401E04FF00109D94502DDA9EBB3
:1016B0000B0000E0002000EB0B0141440890AAEB76
:1016C000010AE00306D4DDE90F232146504600F06D
:1016D00063F806444FF0000908E009A911F8090071
:1016E000DDE90F12904709F10109761CC145F4DBD1
:1016F000E0030CD5DDE90F232146504600F04CF8FD
:10170000064404E0DDE90F1230209047761C08996A
:10171000481E08900029F5DC08E00A980A9900782C
:10172000491C0A91DDE90F129047761CBBF10001BC
:10173000ABF1010BF1DC21465046DDE90F2300F04F
:1017400019F806446D1C1BE60928010030313233BC
:1017500034353637383961626364656600000000ED
:1017600030313233343536373839414243444546D7
:10177000000000002DE9F041044600251E461746F2
:10178000880404D405E039462020B0476D1C641E4F
:10179000F9D52846BDE8F0812DE9F0410446002541
:1017A0001E469046C80301D5302700E02027880454
:1017B00004D505E041463846B0476D1C641EF9D596
:1017C0002846BDE8F08108B50021009102E00099AB
:1017D000491C009100EB8001009AB2EB410FF6D357
:1017E00008BD0A68531C0B601070704700B50346B3
:1017F000012200BF00F00CF802465B1E012A01D155
:10180000002BF7D1012A00D10422104600BD0000B0
:1018100000200A49C96801F0010109B101200CE06A
:101820000649C96801F0100109B1032005E0034928
:10183000C96801F0040101B1022070470020024094
:1018400000B50346012200BF00F00CF802465B1E03
:10185000012A01D1002BF7D1012A00D10422104620
:1018600000BD000000200A49C96C01F0010109B166
:1018700001200CE00649C96C01F0100109B10320F8
:1018800005E00349C96C01F0040101B10220704771
:1018900000200240064A02EB9011096800F01F0385
:1018A00001229A401143024B03EB901211607047E2
:1018B0000020024070B504460D46002627480088E7
:1018C000B0F5007F31D92648844217D22548FFF76A
:1018D0008DFF0646002E3ED12348006940F00100EE
:1018E0002149086125801F48FFF780FF06461E48F2
:1018F000006920F001001C4908612CE01948FFF73D
:101900009FFF06463EBB1848006D40F00100164997
:10191000086525801348FFF793FF06461248006DBF
:1019200020F001001049086515E00E48FFF75EFF42
:10193000064686B90C48006940F001000A49086172
:1019400025800848FFF752FF06460748006920F047
:10195000010005490861304670BD0000E0F7FF1F37
:10196000FFFF07080000FF0F002002400848006941
:1019700040F080000649086106480088B0F5007F05
:1019800004D90846006D40F08000086570470000EB
:1019900000200240E0F7FF1F30B5054636480088BA
:1019A000B0F5007F48D9354885421ED23448FFF74C
:1019B0001DFF0446002C5CD13248006940F0020053
:1019C0003049086108464561006940F040000861FF
:1019D00000BF00BF2A48FFF709FF044629480069F5
:1019E00020F002002749086143E02548FFF728FF5F
:1019F0000446002C3DD12348006D40F002002149EF
:101A0000086508464565C06900F0020008B108464F
:101A100045611C48006D40F040001A49086500BF50
:101A200000BF1748FFF70CFF04461648006D20F072
:101A30000200144908651CE01148FFF7D7FE044670
:101A4000BCB91048006940F002000E490861084620
:101A50004561006940F04000086100BF00BF0848D0
:101A6000FFF7C4FE04460748006920F0020005495C
:101A70000861204630BD0000E0F7FF1FFFFF0708A8
:101A80000000FF0F002002400C48006900F08000B9
:101A900020B10B48094948600A4848600A48008854
:101AA000B0F5007F09D90548006D00F0800020B135
:101AB00003480249486403484864704700200240D4
:101AC00023016745AB89EFCDE0F7FF1F70B50446F2
:101AD0000D46E1B2054800F09BFA00BF072103481C
:101AE00000F0E7FA0028F9D0204670BD0038014028
:101AF000F0B5044616460025002201F00F0501F05E
:101B0000100747B1042E05D145F00305E76B1F43CD
:101B1000E76300E0354300201EE0012787401F40B7
:101B2000C7B122684FEA800C0F2707FA0CF7BA43B7
:101B3000870005FA07F73A43282904D1012787408F
:101B40001F40676105E0482903D1012787401F40F6
:101B500027612260471CB8B20828DED3082022E0A3
:101B6000012787401F40E7B16268A0F108074FEAEC
:101B7000870C0F2707FA0CF7BA43A0F10807BF003C
:101B800005FA07F73A43282904D1012787401F4067
:101B9000676105E0482903D1012787401F4027617D
:101BA0006260471CB8B21028DAD3F0BD8EB0FEF7E1
:101BB000F7FBFEF776FB12A0FFF7A0FB6846FFF7E6
:101BC000E1F9002814D06846FEF7A9FB80B1684609
:101BD000FFF7E4FA38B112A0FFF790FB0DF12A00ED
:101BE000FFF7F4F902E017A0FFF788FBFEF7ACFB64
:101BF0001DA0FFF783FBFEF759FB00BFFEE70000C7
:101C00002A2A2A2A2A5468697320697320626F6F0E
:101C1000746C6F616465722A2A2A2A2A0A000000FD
:101C20002A2A2A2A2A2A2A2A2A7570646174652097
:101C3000737563636573732A2A2A2A2A2A2A2A2A31
:101C40002A2A0A002A2A2A2A2A2A2A2A2A75706473
:101C5000617465206661696C65642A2A2A2A2A2AC9
:101C60002A2A2A2A2A0A00002A2A2A2A2A2A2A2A48
:101C70002A626F6F7420746F206170702A2A2A2A7A
:101C80002A2A2A2A2A2A2A0A00000000034A0A408D
:101C90000243034B1A60BFF34F8F704780FFFF1F53
:101CA00008ED00E02DE9F04F8CB0074600200A90C7
:101CB0004AA090E8004CC068CDE905BECDF810A060
:101CC00007900FF21C1ADAE9000ACDE9020A0FF2B6
:101CD000101ADAE9000ACDE9000A44484068C0F366
:101CE00081000B900B9820B1012804D002283FD12D
:101CF00003E03F4A3EE03E4A3CE03C48406800F496
:101D0000803CBCF5803F12D13848C06A00F0804862
:101D1000B8F1000F01D1364B00E0364B3348406834
:101D200000F40039B9F5003F02D15B0800E0324B06
:101D30002E484068C0F383412C48406800F00060A2
:101D400008B141F010012948406800F0804008B116
:101D500041F020010F2901D2891C06E00F2903D38D
:101D60003E2901D8491C00E03F2103FB01F201E0BC
:101D70001F4A00BF00BF1D484068C0F3031504A8F8
:101D8000465D22FA06F419484068C0F3022502A80D
:101D9000465D24FA06F0099014484068C0F3C22555
:101DA0001DF8056024FA06F0089037B1012F06D01F
:101DB000022F06D0032F0AD106E00A9208E00A9407
:101DC00006E009980A9003E008980A9000E000BF36
:101DD00000BF0A980CB0BDE8F08F000000000000C2
:101DE0000000000001020304060708090010024079
:101DF00000127A00006CDC0200093D00064A02EB8A
:101E00009011096800F01F0301229A401143024B10
:101E100003EB90121160704700100240064A02EB7B
:101E20009011096800F01F0301229A409143024B70
:101E300003EB90121160704700100240064A02EB5B
:101E40009011096800F01F0301229A401143024BD0
:101E500003EB9012116070470010024008B500209B
:101E60000021414A126842F480323F4B1A6000BFA1
:101E7000401C3D4A126802F4003119B94FF6FF7256
:101E80009042F5D1384A126802F400320AB900BF14
:101E9000FEE7354AD26942F08052334BDA61334A69
:101EA000126842F44042314B1A602F4A52682E4B5E
:101EB0005A601A4652685A601A46526842F4806262
:101EC0005A601A46526822F440325A601A465268E2
:101ED00042F440325A601A465268254B1A40224B4F
:101EE0005A601A465268234B1A431F4B5A601A46CF
:101EF000126842F080721A6000BF1B4A126802F03A
:101F00000072002AF9D0194A126842F48032174B45
:101F10001A6000BF154A526802F48032002AF9D0D4
:101F2000124A126842F40032104B1A6000BF0F4A86
:101F3000526802F40032002AF9D00B4A526800922B
:101F4000009A22F003020092009A42F002020092EC
:101F5000054B009A5A6000BF034A526802F008021B
:101F6000002AF9D008BD00000010024000700040B7
:101F7000FFFFC3B70000340810B5FFF76FFF10BDB7
:101F80002DE9F04704460D460027B846B94600261D
:101F90001D49601A8C421CD006DC1C48204470B1DC
:101FA000B0F5806F1FD10FE0B0F5806F16D0B0F59F
:101FB0006C4F18D10320FFF775FE074614E002208E
:101FC000FFF770FE07460FE00220FFF76BFE0746A3
:101FD0000AE00220FFF766FE074605E00220FFF751
:101FE00061FE074600E000BF00BF07EB5500B0FBF5
:101FF000F5F64FF6F07006EA000806F00F0948EA19
:102000000900A060BDE8F087004C004000BCFFBFA5
:10201000C1F308024260704710B504462049601AB7
:102020008C4228D006DC1F48204490B1B0F5806F68
:1020300033D117E0B0F5806F26D0B0F56C4F2CD1BE
:1020400040F20E30FFF7FAFE40F20E30FFF7E6FEE8
:1020500024E040F21140FFF7F1FE40F21140FFF79B
:10206000DDFE1BE040F21240FFF7E8FE40F21240B6
:10207000FFF7D4FE12E040F21340FFF7DFFE40F21C
:102080001340FFF7CBFE09E040F21440FFF7D6FE05
:1020900040F21440FFF7C2FE00E000BF00BF10BDD9
:1020A000004C004000BCFFBFC16841F40051C1605A
:1020B000704710B5024602EB9110006801F01F0452
:1020C0000123A340184008B1012010BD0020FCE707
:1020D000C26822F00802C260C26801F008031A4315
:1020E000C2607047020600000008014000010000C5
:1020F000060600000018014040000000070600002E
:10210000001C0140400000002821000800000020C1
:1021100058000000441300088021000858000020E7
:102120001008000054130008EFBEADDE312E300061
:10213000000000000000000000000000800000001F
:10214000000000000000000000000000000000008F
:10215000000000000000000000000000000000007F
:10216000000000000000000000000000000000006F
:10217000000000000000000000000000000000005F
:0400000508000131BD
:00000001FF
